:020000040001F9
:10F00000C070002015F401001DF401001FF4010080
:10F0100021F4010023F4010025F4010000000000A8
:10F0200000000000000000000000000027F40100C4
:10F0300029F40100000000002BF4010065FB010031
:10F0400081F901002FF40100D1FD010015FB010041
:10F050002FF401002FF40100BDF501002FF4010091
:10F060002FF401002FF401002FF401002FF4010010
:10F070002FF401002FF401002FF401002FF4010000
:10F080002FF40100E1FA01002FF401002FF4010038
:10F090002DFB01002FF4010035FB01002FF40100CE
:10F0A0002FF401002FF401002FF401002FF40100D0
:10F0B0002FF401002FF40100000000000000000008
:10F0C0002FF401002FF401002FF401002FF40100B0
:10F0D0002FF401002FF401002FF4010000000000C4
:10F0E0000000000000000000000000000000000020
:10F0F0000000000000000000000000000000000010
:10F1000000000000000000000000000000000000FF
:10F1100000000000000000000000000000000000EF
:10F40000DFF80CD000F09CF8004800478183020030
:10F41000C07000200648804706480047FEE7FEE728
:10F42000FEE7FEE7FEE7FEE7FEE7FEE7FEE7FEE7B4
:10F4300085FB010001F4010040EA01039B0703D0B2
:10F4400009E008C9121F08C0042AFAD203E011F823
:10F45000013B00F8013B521EF9D27047D2B201E0E5
:10F4600000F8012B491EFBD270470022F6E710B5C9
:10F4700013460A4604461946FFF7F0FF204610BD22
:10F48000421C10F8011B0029FBD1801A704710B5EF
:10F49000002200E0521C835C8C5CA34201D1002B53
:10F4A000F8D1D8B2E1B2401A10BD30B50446002000
:10F4B000034600E05B1C934203D2E05CCD5C401B42
:10F4C000F8D030BD034611F8012B00F8012B002ABB
:10F4D000F9D118467047A0E8004FF0C040F804DBAF
:10F4E00001B5AFF30080BDE8024001C100207047C4
:10F4F00000F12C080C4658F8040DAFF3008058F8C2
:10F50000040D8546200008BF012038E9F00018E905
:10F51000004F704730B50B460146002020220124E1
:10F5200009E021FA02F59D4205D303FA02F5491BD1
:10F5300004FA02F52844151EA2F10102F1DC30BDE7
:10F54000064C074D06E0E06840F0010394E8070030
:10F5500098471034AC42F6D3FFF756FF3C0E030039
:10F560005C0E030070B58C1810F8015B15F00703F2
:10F5700001D110F8013B2A1106D110F8012B03E04C
:10F5800010F8016B01F8016B5B1EF9D12B0705D454
:10F590000023521E0DD401F8013BFAE710F8013B9D
:10F5A000CB1A921C03E013F8015B01F8015B521EB9
:10F5B000F9D5A142D8D3002070BD00002DE9F04F4D
:10F5C00087B00027BA464FF48070069001250024CA
:10F5D00012E0069809F07EFE40B100BF6148006865
:10F5E000284018B1069809F067FE2F436D00069871
:10F5F000001D80B20690641C082CEAD34FF4BE7044
:10F6000009F068FE48B14FF4BE7009F055FE47F0AE
:10F61000004700BF544800688246F8B200B3012595
:10F6200000241BE005EA0700B0B100BF4F4850F8C6
:10F630002400C0F30420804600BF4C4850F824004A
:10F64000C0F301408146204603F046FC064616B151
:10F6500049464046B04700BF6D00641C082CE1D30A
:10F6600007F00040002879D04FF0000B00200590F3
:10F67000401E049000BF4FF0000B002457E03C48B0
:10F68000005D0390039820F0C00639480057401CE5
:10F6900000284BD00120B04004990840002845D0F4
:10F6A00003984FEA9019304603F05EFC804603F061
:10F6B00013FC0290029810B9B9F1030F35D1012063
:10F6C00000FA06F5B9F1030F02D105982843059019
:10F6D00000BF284850F82600C0F3014800BF05EAE3
:10F6E0000A0010B1B8F1020F05D005EA0A00D8B936
:10F6F000B8F1030F18D1B9F1030F0FD1B8F1020F10
:10F7000001D1032000E0022001903046019909F068
:10F710009BFD0BF1010000F0FF0B00BF029818B138
:10F7200049463046029A904700BF00BF641C042C33
:10F73000A5D3BBF1000F0DD000BF0B4909680846E7
:10F74000504503D14FF0000B03E007E082460599D6
:10F75000049100BFBBF1000F8DD100BF07B0BDE821
:10F76000F08F000004630040100500501065004059
:10F77000282B00200007005010B5044604F120009B
:10F7800006F008F818B104F1200005F0CAFF10BD1A
:10F790002DE9FF5F04464FF00008C146B4F90CA004
:10F7A000B4F90EB0B4F91060B4F9125007F0ACFB24
:10F7B000074604F1200005F0EDFF48B9CDE90057F8
:10F7C00033465A465146A06805F004FCBDE8FF9F49
:10F7D000B4F92600B0422ADAB4F92660B4F9101060
:10F7E000881B00EBD07149100FFA81F80AEB080072
:10F7F0000FFA80FAB8F1000F08D0CDE90057B4F93C
:10F800000C1043465A46A06805F0E4FBCDE90057CA
:10F81000228AA2EB0802921B13B20AEB060211B273
:10F820005A46A06805F0D6FB4FF000080BE0B4F98B
:10F830002600B04207DDB4F92610881B00EBD0711A
:10F8400049100FFA81F8B4F92800A8422BDAB4F96C
:10F850002850B4F91210481B00EBD07149100FFA70
:10F8600081F90BEB09000FFA80FBB9F1000F08D00A
:10F87000CDE90097B4F90E2033465146A06805F053
:10F88000A9FB608AA0EB0900401B00B20BEB05014D
:10F890000AB2CDE9000733465146A06805F09AFB4D
:10F8A0004FF000090BE0B4F92800A84207DDB4F9D5
:10F8B0002810481B00EBD07149100FFA81F9394626
:10F8C00004F1200006F0DCF9CDE90289CDE90065FC
:10F8D0005B46524604F12001A06805F09DFC00BF84
:10F8E00074E7000000F01F0201219140024A430921
:10F8F00042F823107047000080E200E000F01F0291
:10F9000001219140024A430942F823107047000048
:10F9100080E100E000F01F020121914042099200C5
:10F9200002F1E022C2F80011704700F01F0201212D
:10F9300091404209920002F1E022C2F800117047A2
:10F9400000F01F0201219140024A430942F82310AE
:10F950007047000000E200E010B5002807DA4A070F
:10F96000140E054A00F00F031B1FD45403E04A078E
:10F97000130E024A135410BD18ED00E000E400E03D
:10F9800010B54FF4807009F0D3F860B14FF4807077
:10F9900009F0D7F8012009F0DDF801200B49487083
:10F9A000002003F05FFC4FF4827009F0C1F858B1F9
:10F9B0004FF4827009F0C5F8022009F0CBF801205D
:10F9C0000249887003F04EFC10BD0000C42A0020DC
:10F9D00000220A6002681AB142681160416001E0C9
:10F9E000416001607047002141600160704701463D
:10F9F000086808B9002070470A6810680860104657
:10FA0000F9E770470146D1E90220D268904201DB54
:10FA1000012070470020FCE710B50446204600F0A6
:10FA200011F808B1012010BD0020FCE770B50446B4
:10FA3000204600F007F8051E01D1401E70BDE868A1
:10FA4000FCE7000070B50546094804680BE0208813
:10FA5000002807DC608828B92946A068FFF717FD51
:10FA600000B902E06468002CF1D100BF204670BDEF
:10FA70002823002001468868C068704770B5044696
:10FA80000D462846FFF7DEFF061E00D170BDA660BA
:10FA9000FF20FBE72DE9F04104460F461546A66816
:10FAA000F068E168401AA84202DAF068E168451A95
:10FAB000002D02DC0020BDE8F0813069E268811889
:10FAC0002A463846FFF7B8FC2846F4E70246906815
:10FAD000C068884201DB012070470020FCE700007D
:10FAE00010B500200949086000210948C0F84411F8
:10FAF000C0F84811C0F84C1100200549C1F80001B8
:10FB000002493C3908600DF0A5FC10BD40110140D0
:10FB10000010014010B5034C2146034807F03AFF9E
:10FB200010BD0000502B00200030004010B50DF03B
:10FB3000A7FB10BD70B50A48006868B108480068A6
:10FB40008047044600BF254625B100BF284601F086
:10FB500057FA00BF00BF01E007F042FE70BD000091
:10FB60007022002002480068401C0149086070476C
:10FB70005421002001480249086070470090D003DA
:10FB80002C23002010B503F091FF10B18248834967
:10FB9000486703F0A3FF28B181480068C0F34230F2
:10FBA0008049086003F0C4FF28B17F48006820F056
:10FBB00080707D49086003F0D3FF48B100207B4985
:10FBC00008604FF08041C1F810017649091F0860B4
:10FBD00003F0F0FF18B1032072496431086004F0AB
:10FBE00001F868B105207249086001207049783138
:10FBF000086000206E49083108603F20091F086036
:10FC000004F008F8002855D06A4800686A4908607E
:10FC10006848001D0068091D0860664808300068D3
:10FC2000091D086063480C300068091D08606148C0
:10FC300010300068091D08605E4814300068091D16
:10FC400008605C48183000685B49203108605948FA
:10FC50001C300068091D0860564820300068091DE6
:10FC60000860544824300068091D08605148283055
:10FC70000068091D08604F482C300068091D0860A5
:10FC80004C48303000684C494031086049483430B5
:10FC90000068091D0860474838300068091D086081
:10FCA00044483C300068091D086042484030006804
:10FCB000091D086003F0D0FE30B1394814300068E7
:10FCC00000F04F003D49086037487438006840F440
:10FCD000700035497439086000BF00BF00BFBFF332
:10FCE0004F8F00BF00BF00BF00BF00BF00BFBFF30A
:10FCF0006F8F00BF00BF00BF3148006800F00040B8
:10FD000030B92F48001D006800F00040002840D0A6
:10FD100001202C49086000BF2B4800680028FBD058
:10FD200015202749086000BF274800680028FBD03D
:10FD300015212348001D016000BF234800680028EA
:10FD4000FBD000201F49086000BF1F480068002842
:10FD5000FBD000BF00BF00BF00BF00BFBFF34F8F8D
:10FD600000BF00BF00BF1048F038006800F4E0603A
:10FD700016490843001D0C49F039086000BF00BF58
:10FD800000BFBFF34F8F00BF00BF00BF00BF00BF69
:10FD9000FDE7FFF7EFFE10BD0DF0ADBA00C0074064
:10FDA000440200103C050040FCED00E00C01004066
:10FDB000105600400404001020C50040E40E00402E
:10FDC0000012001004E5014000E401400000FA05C3
:10FDD00010B50648007F20B1044905480DF0C1FC6C
:10FDE00003E0024902480DF01BFC10BD302B00203F
:10FDF0000020004070B504460D4621460C4806F030
:10FE0000E6FD0320208260820020E081A081B5F918
:10FE10000220B5F90010204600F01AF8B5F90620C6
:10FE2000B5F90410204600F02BF9FF2070BD00004A
:10FE30000C2300207047000010B5044621460248FC
:10FE400006F0DFFD10BD00000C2300207047704756
:10FE50002DE9F04104460D461646A06805F0D8F994
:10FE60000746A06805F0D0F98046B4F91000284490
:10FE7000B84202DD208A381A05B2002D00DA0025CA
:10FE8000B4F912003044404503DD608AA8EB00005D
:10FE900006B2002E00DA0026781B07B2A8EB060097
:10FEA0000FFA80F8B4F91000B84201DAB4F9107012
:10FEB000B4F91200404501DAB4F91280B4F9100027
:10FEC000B84203D1B4F91200404504D04246394645
:10FED000204600F0D5F8B4F90C00A84205D1B4F9D9
:10FEE0000E00B04201D1BDE8F081208B00F400701B
:10FEF00088B10021204607F099F9002000F040FC6D
:10FF0000B4F90C70A581B4F90E80E681FF2120467A
:10FF100007F08CF905E0B4F90C70A581B4F90E80F6
:10FF2000E68100BFDFE7000010B504462146054822
:10FF300006F067FD2146034806F049FD204600F023
:10FF4000CBFC10BD0C2300202DE9FC410446208B86
:10FF500000F4007040B36068C06820B16068C16898
:10FF60002046884783E0208B00F4004000287ED0A4
:10FF7000607DB4F91210CDE90010B4F91030B4F975
:10FF80000E20B4F90C10A06805F024F8A06900F068
:10FF9000807000286BD160680069002867D06068B5
:10FFA00001692046884762E0208B00F40040002869
:10FFB0005DD006F0A9FF0646B4F91200CDE90006AF
:10FFC000B4F91030B4F90E20B4F90C10A06805F0A3
:10FFD00001F8002006F0A4FF054645E0288B00F458
:10FFE000007070B3A868A168884239D1B4F90C00D8
:10FFF000B4F910100844B5F90C10884230DDB4F99A
:020000040002F8
:100000000E00B4F912100844B5F90E10884227DD2D
:10001000B5F90C00B5F910100844B4F90C10884279
:100020001EDBB5F90E00B5F912100844B4F90E1034
:10003000884215DB6868C06820B16868C1682846D6
:1000400088470DE0687DB5F91210CDE90010B5F9CB
:100050001030B5F90E20B5F90C10A86804F0BAFFFD
:10006000284606F05DFF0546002DB7D100BF0349C5
:10007000A0690840A061BDE8FC810000FF3FFFFED1
:100080002DE9F04104460D461646A06805F0C0F87B
:100090000746B4F90C002844B84202DDA089381A9A
:1000A00005B2A06805F0B0F80746B4F90E00304478
:1000B000B84202DDE089381A06B2032D00DA0325C2
:1000C000032E00DA0326B4F91000A84205D1B4F9D2
:1000D0001200B04201D1BDE8F081208B00F4007025
:1000E000D8B1B4F91000A84209DCB4F91200B0424A
:1000F00005DC25826682204600F0EEFB0FE0002141
:10010000204607F093F8002000F03AFB2582668233
:10011000FF21204607F08AF801E02582668200BFB1
:10012000D9E700000FB4084B10B504A902AA039840
:1001300000F058FC044602A9002000F0FDFC204617
:1001400010BC5DF814FB0000390B020030B528B17B
:10015000144C031F002021680A4605E0084630BD04
:100160009A4203D810465268002AF9D1002800D0DC
:1001700041680BD00468A3EB0005A54204D11B68BD
:100180001C440346046002E0436000E023603AB18F
:100190001C68D51AA54203D115682C441C6052680E
:1001A0005A6030BD302300202DE9F04782460F4CC5
:1001B00010480D4E0E4F001B4FF0000820F00705B1
:1001C0004FF0010900221146504607F065FB002858
:1001D00002D1306810B10020BDE8F0873C60C4E96E
:1001E0000058C6F80090EDE734230020C4500020EA
:1001F00030230020C050002002E008C8121F08C1B0
:10020000002AFAD170477047002001E001C1121F97
:10021000002AFBD1704700000146202908DA01209E
:1002200088400A4A104008B1012070470020FCE7CE
:10023000402909DAA1F12000012202FA00F008B1F8
:100240000120F2E70020F0E70120EEE7FC06FFBC0A
:1002500000BFEFF31081084672B6704710B5044630
:1002600005480068A04205D10021672005F0E4FDA3
:100270000149086010BD0000C422002010B50548E7
:10028000807800F0010018B90021024805F0ECFD6B
:1002900010BD0000500D03002DE9F04104460D464D
:1002A00016461F46277766770020E083656104F1D4
:1002B000200006F085FB04F1200006F073FB2046C9
:1002C00005F084FD804604F1200006F076FB4046F0
:1002D000BDE8F08138B50446B4F90A000090B4F9DD
:1002E000083000221146204605F00CF90021204676
:1002F00004F0CCFD204604F079FF0348006808B9FB
:100300000148046038BD0000C4220020704700008E
:1003100000B5024806F054FB00BD0000DC220020BE
:1003200002463C4970E0087900F0010000286AD1DB
:100330001078612841D0722802D077285ED11AE067
:100340004FF48170888010E010782B2802D062284A
:100350000AD104E0888840F00400888004E088889E
:1003600040F01000888000BF00BF501C024600789B
:100370000028E9D144E040F20440888017E010787A
:100380002B2804D0622807D078280FD109E088886C
:1003900040F00200888009E0888840F010008880E2
:1003A00004E0888840F40070888000BF00BF501CC3
:1003B000024600780028E2D122E00C20888017E075
:1003C00010782B2804D0622807D078280FD109E0B4
:1003D000888840F00200888009E0888840F010009A
:1003E000888004E0888840F40070888000BF00BFE7
:1003F000501C024600780028E2D101E0002070473E
:1004000000BF0846FBE710310248303081428AD3F2
:100410000020F4E79050002070470000F8B5044633
:100420002548007880B104F1B800244909684618CD
:10043000224A1268ADEB020120480268121D04F145
:100440001800FEF7F9FF0CE0A06801191B480068CE
:10045000001D0E1A19480268121D69463046FEF743
:10046000EBFF606900906846371A154805680BE095
:1004700005F0010020B10098006838440099086038
:100480006D080098001D0090002DF1D1606980304A
:1004900000900C4805680BE005F0010020B10098C1
:1004A00000683844009908606D080098001D0090AD
:1004B000002DF1D1F8BD0000A8220020B4220020B8
:1004C000AC220020B022002008B505490968C1F817
:1004D00000D0034800680830FEF7FDFF08BD0000AB
:1004E000B822002010B506480068A830044908600A
:1004F000FFF7EAFF02480068A8380149086010BD0C
:10050000B82200202DE9F041D4B03748374948617E
:100510003749C1F800D0FFF7E5FFFFF7D5FF3448B2
:100520000068D0F8A800324909680968884201D9F2
:10053000012000E000202F4908702D48006800F1DC
:1005400008042B48006800F1B007294800680068DB
:1005500027490968D1F8A810A0EB010824480068D1
:10056000066800202449086024490860002527E027
:1005700020683968401A40451FD1202D07D201203C
:10058000A8401E49096808431C49086009E0A5F114
:100590002000012101FA00F01749096808431649B3
:1005A00008601448007820B12068B04205D226685F
:1005B00003E02068B04200D926686D1C241D3F1D51
:1005C000282DD5D30B48007820B109480068006871
:1005D000801B03E0064800680068301A084908607C
:1005E00054B0BDE8F0810000C0450020A8450020BF
:1005F000B8220020A8220020B0220020AC22002037
:10060000B42200202DE9F04105460C4616466869E3
:10061000FEF761FF08B1BDE8F0819EB104F118005A
:1006200060616069FEF757FF48B1084A12681069B7
:10063000064A1268D1688847074606F063FA2046E2
:10064000FFF7ECFE01216069FEF752FFA4220020B3
:100650007047704710B5FFF7FCFF00F001F810BDC0
:1006600010B50948FFF7BFF90020084908601820B5
:100670008860022048600020C8600861FFF742FFE0
:1006800002480349086010BD94220020A8450020BC
:10069000A42200207047000010B501220021064866
:1006A00006F0DCF9054806F08BF9012006F074F934
:1006B0000349086010BD0000EC220020E022002069
:1006C000F0220020F8B507460D4614461E464FF4AA
:1006D00086303346224629460090384600F026F9F7
:1006E000051E00D1F8BDE06808B1E06800E009A08F
:1006F0002862206908B1206900E070696862606959
:10070000A862A06908B1A06901E003480068E86236
:100710002846E7E700000000FC22002010B5044650
:10072000A06920F48070A061208B00F4005030B1EB
:10073000A06920F40050A061206A06F002F920466A
:1007400006F048F810BD000010B5044806F052F855
:1007500000220349014806F05BF810BD60500020FC
:10076000396E020010B50446208B00F4007000B909
:1007700010BD2046D4E90921904700BFF8E70000EA
:10078000F8B505464E48007800B9F8BD2DB94FF0D0
:10079000FF314C4806F076F907E0012D05D1002124
:1007A000484806F06FF900B9EFE739E044480078AF
:1007B00020F0010042490870002006F0B1FB044619
:1007C0002CE0208B00F48440B0F5804F00D021E075
:1007D000B4F912000090B4F91030B4F90E20B4F955
:1007E0000C10A06804F08EFE3748006800680169AC
:1007F00020468847A06804F007FD0646A06804F07C
:1008000007FD074600963B4600221146A06804F00B
:1008100079FE00BF204606F083FB0446002CD0D1B1
:100820002748007800F001000028BFD139E02448B3
:10083000007820F0020022490870002006F070FBCA
:1008400004462CE0208B00F48440B0F5844F00D0A7
:1008500021E0B4F912000090B4F91030B4F90E2080
:10086000B4F90C10A06804F04DFE17480068006849
:10087000016920468847A06804F0C6FC0646A068C7
:1008800004F0C6FC074600963B4600221146A068CD
:1008900004F038FE00BF204606F042FB0446002C60
:1008A000D0D10748007800F002000028BFD10DB178
:1008B000012D02D1034806F0D4F800BF65E700001F
:1008C00014230020062300200023002010B500F090
:1008D0006FF8FFF739FF10BD10B50446208B00F408
:1008E000007000B910BDA06940F48040A0610548C7
:1008F000007840F00200034908700120FFF740FF34
:1009000000BFEFE71423002070B504460D460648EB
:1009100000680068294682682046904708B9002090
:1009200070BDFF20FCE70000002300202DE9F0410E
:1009300006460C4617461D46DDF8188054B968680F
:1009400005F0F3FF041E01D1BDE8F08148F48050AA
:10095000A06101E0C4F81880A660656011480078C5
:10096000207511480078607510480068E06168687B
:10097000202806D96868A0F1200104F12000FEF7C4
:1009800074FD39462046FFF7BFFF40B9208B00F4C5
:10099000805010B1204605F0D4FF0020D4E7204657
:1009A000D2E70000F4220020F5220020F8220020E7
:1009B00010B501221146074806F050F8064806F027
:1009C00002F806480649086009680968086880470F
:1009D00010BD0000062300200C230020BC0A0300E9
:1009E000002300202DE9FF4F89B09B4604460025D7
:1009F00006E025280BD05A460B999047641C6D1CC5
:100A000020780028F5D10DB02846BDE8F08F0027EA
:100A1000B8460122474900E0074314F8013F203B54
:100A200002FA03F00842F7D120782E2819D114F8E1
:100A3000010F47F004072A280ED06FF02F0220780C
:100A4000A0F1300109290CD808EB880102EB410123
:100A500000EB0108641CF2E70A98641C50F8048B50
:100A60000A9020780028CED0642808D0692806D0C3
:100A700075281ED05A460B9990476D1C58E00A996C
:100A80004FF00A0901C90A91002802DA40422D21DB
:100A900002E0390504D52B218DF82010012103E057
:100AA000F90704D02021F7E78A4608AE0DE00021BF
:100AB000FAE70A994FF00A0901C90A91F7E749468E
:100AC000FEF728FD303106F8011D0028F7D1ADEB07
:100AD000060000F12009780701D44FF00108C8454D
:100AE00002DDA8EB090000E000208046002706E0B8
:100AF00008A85A46C05D0B9990476D1C7F1C57454E
:100B0000F6DB04E030205A460B9990476D1CB8F193
:100B10000001A8F10108F5DC05E016F8010B5A46C2
:100B20000B9990476D1CB9F10001A9F10109F4DCA2
:100B3000641C65E7092801000A68531C0B601070EB
:100B4000704770B505460C4605B10CB9002070BD64
:100B5000287840082178B0EB510F01D00020F6E74B
:100B60000622611C681CFEF7A0FC08B90120EEE714
:100B70000020ECE70246002104E0505C08B10120AF
:100B80007047491C0629F8D30020F9E710B5044640
:100B90006CB108480068A04209D806484068A042E5
:100BA00005D3204606F026FF08B1012010BD002025
:100BB000FCE70000382300202DE9FC41044688466C
:100BC0001646002537880020308094F82D0058B153
:100BD0003A463146404601F00BF8054600BF15B1D4
:100BE0002846BDE8FC8100BFA07850B13A463146A6
:100BF000404600F0E3FA054600BF0DB12846F0E795
:100C000000BFE07860B1E17848B23B4632464146E9
:100C100003F05AFC054600BF0DB12846E1E700BFCE
:100C2000606868B1616891F900003B463246414610
:100C30000CF0DBFC054600BF0DB12846D1E700BF34
:100C4000208900280EDD43460622022104F1080017
:100C5000CDE900670CF002FF054600BF0DB1284644
:100C6000BFE700BF208A00280EDD4346072203218C
:100C700004F11000CDE900670CF0F0FE054600BF5E
:100C80000DB12846ADE700BF208B00280EDD43469E
:100C90001522142104F11800CDE900670CF0DEFEE6
:100CA000054600BF0DB128469BE700BF206A58B13A
:100CB0003B4632464146206A02F061FB054600BFD2
:100CC0000DB128468DE700BF606A58B13B463246F9
:100CD0004146606A07F0DCFB054600BF0DB12846BF
:100CE0007FE700BF94F82C0000280BDD3B4632461E
:100CF000414620460BF0DCFC054600BF0DB12846FE
:100D00006FE700BF207858B13B4632464146204647
:100D100007F0F5FD054600BF0DB1284661E700BFAD
:100D200028465EE770B504461448FFF723FF0546E2
:100D3000012C06D0022C0BD0032C10D0042C1AD17D
:100D400013E00F48407810B10DB1012070BD00BF15
:100D50000B48807810B10DB10220F7E700BF0848BA
:100D6000C07808B10320F1E700BF0548007908B159
:100D70000420EBE700BF0020E8E700008921002005
:100D8000782500200146481C052290FBF2F302FB67
:100D90001300C0B270470146C87800F0040008B9DB
:100DA000072070470020FCE710B501220221002037
:100DB00001F09AFC044600BF1CB1072C01D020466C
:100DC00010BD00BF07220221012001F08DFC044666
:100DD00000BF1CB1072C01D02046F1E700BF0A225A
:100DE0000021084601F080FC044600BF1CB1072C1E
:100DF00001D02046E4E700BF0020E1E730B597B01E
:100E0000382109A8FEF731FB02208DF824000120CB
:100E10008DF8260006208DF827000120ADF834005B
:100E200010490E91202101A8FEF71FFB01208DF82B
:100E300007004FF496700590B420069000200A4BEE
:100E400001AA0146009009A800F022FB044600BF59
:100E5000254625B100BF284600F0D2F800BF00BFEC
:100E600017B030BD582100209193020070B58CB0AE
:100E700004460D461646002005E0C0F10F01615CF6
:100E80000DF80010401C1028F7D30D2104A8FEF720
:100E9000ECFA002005E02A5CC0F10F0304A9CA5453
:100EA000401C0328F7D3684643DF002005E0C0F16B
:100EB0000F0208A9895C3154401C0328F7D30CB0F9
:100EC00070BD0000014600BF064A10684FF40022C2
:100ED0008243044B1B1D1A6000F400221B1D1A6084
:100EE00000BF70470405005010B5002407E0074913
:100EF000096811F83400012107F0F0FE641C044871
:100F000000788442F3D3002010BD00001C22002092
:100F1000202200202DE9F84306460C461746052FEF
:100F200002D20720BDE8F88307F0DCFF38B907F0EC
:100F3000ABFF054600BF0DB12846F3E700BF1648DA
:100F400006601648047016480760002015490860BE
:100F50001549086015E006EBC408144800680090C5
:100F600098F802008DF8010098F80000104A6946D0
:100F700007F010FF054600BF0DB12846D2E700BFBD
:100F800000BF201EA4F10101CCB2E4D1094A002126
:100F9000094800F043F8C5E71C2200202022002069
:100FA00024220020282200202C220020ACE2020073
:100FB000916B0200D9370200A8E2020000BF00BF17
:100FC00000BF00BF00BFBFF34F8F00BF00BF00BF17
:100FD0000948006800F4E06008490843001D06491C
:100FE000086000BF00BF00BFBFF34F8F00BF00BF4E
:100FF00000BF00BF00BFFDE70CED00E00000FA05F8
:101000003EB50446002000900190029002946A468A
:10101000002144F20100FFF7D1FF3EBD10B50346A9
:101020000C4600BF0B48406808B9082010BD00BF3F
:101030000AB90720FAE70BB90720F7E71868007C20
:1010400008B10820F2E71968002008744C744A615E
:1010500000BFEBE7302200202DE9F04107460D46A6
:1010600014461E46204600F0030109B9012100E0A4
:10107000002111B90720BDE8F0810CB90720FAE77B
:101080000AF050FF114806600020114908704870AE
:1010900008468570446000200E4908600E490870BB
:1010A0000E4908701420FEF71DFC06211420FEF7DF
:1010B00053FC1420FEF72EFC38460AF009FF0AF014
:1010C00001FF074908600020D5E700004C220020FE
:1010D000302200203822002048220020492200200F
:1010E0003C2200202DE9F04104460E4617462546D5
:1010F00000BF1048406810B90820BDE8F08100BF6B
:101100000CB90820F9E7052E01D20720F5E7686938
:1011100008B90820F1E7687C012801D1304600E0D9
:10112000002080463B464246314628460CF042F9B4
:10113000E3E700003022002070B50446254600BFDA
:101140000848406808B9082070BD00BF0CB1686944
:1011500008B90820F8E700202874022128460CF07E
:1011600058F9F1E73022002010B5044620460AF075
:1011700079FF10BD70B5044625460E488068B0B1B1
:10118000ADB9FFF765F806460A4800680A490860E5
:10119000084840684FF0E021C1F8040100200549EB
:1011A00088601EB900BF62B600BF00BF00BF00BFAD
:1011B00070BD0000902B002000E100E0F8B505466E
:1011C0000C4617462088001DB84201D90C20F8BDF6
:1011D000684679DF064600BF0EB13046F7E700BF2C
:1011E0000320218868542088401C208019202188F1
:1011F00068542088401C208020884119BDF80000D8
:101200000CF076FB2188084420800020DFE70000F6
:1012100010B500224FF4804102480068FFF762FFDA
:1012200010BD0000C0E1020030B58BB0134800785B
:1012300000F0ACFC054628460AF048FFD8B101A8EA
:1012400000F004FC142201A906A8FEF7F5F800241A
:101250000DE007A931F814000849097800F0A4FC52
:1012600020B107A931F8140006F06EFE641C069840
:10127000A042EED800BF0BB030BD0000C22100205C
:1012800010B50446637903F003022179208806F043
:101290002BFD10BD10B50446207918B9204600F08A
:1012A00007F803E02046FFF7EBFF00BF00BF10BDCB
:1012B0002DE9F04188B004460025208800F038FC74
:1012C0000746208806F0CCF90646A0680790607AA9
:1012D0000690208800222349097800F077FC17B98E
:1012E00008B0BDE8F0816079C0F3800090B10721BB
:1012F000304608F0D7FF0546BDB108208DF8000044
:101300002088ADF80200ADF804600295684602F04E
:101310004FFD0AE020881449097800F045FC20B10F
:10132000304606F087F9804600BF03208DF80C0098
:101330002088ADF80E006079C0F380008DF81000B1
:10134000A079C0F380018DF811109DF81C108DF864
:1013500012109DF818108DF8131003A802F028FD44
:1013600000BFBDE7022200200422002030B5024663
:10137000002015780446401C0D5530BD70B504465C
:101380000D46228828466168FEF756F8207870BD21
:1013900010B5034608784C7840EA042010800220FB
:1013A00010BD0246107808701088000A48700220AC
:1013B00070470246107808701088000A48700220B2
:1013C000704710B5034608784C7840EA04208C78C2
:1013D00040EA0440CC7840EA04601060042010BD6C
:1013E0000246107808701088000A48701068000CD7
:1013F00088701068000EC870042070472DE9F04115
:1014000092B080460D461F2011901090B8F1000F49
:1014100017D04046FFF7BFFC044600BF1CB1204672
:1014200012B0BDE8F08100BF11AA08A94046FFF73D
:10143000C3FB044600BF0CB12046F1E700BF08AE75
:1014400002E0002600201190ADB128460BF01BFEF3
:10145000044600BF0CB12046E2E700BF10AA69466F
:101460002846FFF7A9FB044600BF0CB12046D7E78A
:1014700000BF6F4602E0002700201090BDF840003A
:10148000C3B2BDF84400C1B23A46304672DFC7E786
:101490002DE9F04704460F4615461E46DDF820802C
:1014A00004B115B90E20BDE8F08701204849087045
:1014B000002048490870202229464748FDF7BCFF14
:1014C000464806604648C0F800804FF6FF70454920
:1014D000088045480021016081808171382143489E
:1014E000FDF7C3FF207841490870A0788870E07844
:1014F000C87060784870D4E90402C1E90402084663
:10150000D4E90212C0E90212D4E90612C0E90612B7
:10151000606AD8B136483549486236498160606AA8
:1015200000883249496A0880606A80882F49496A80
:101530008880002005E0616A8968095C2D4A1154A1
:10154000401C2A49496A89888142F4D8A06A20B39C
:1015500029492A4881602549886227492348806AA9
:101560008160A06A80882149896A8880A06A008891
:101570001E49896A0880002005E0A16A8968095C23
:101580001D4A1154401C1949896A89888142F4D83E
:1015900094F82C00154981F82C00206A58B118489D
:1015A00012490862206A4088096A4880206A0088D7
:1015B0000E49096A0880606810B10C49606848608B
:1015C00039460A48FFF71AFF814648466BE7000094
:1015D00084210020872100207825002098210020E8
:1015E0009C210020942100208821002098250020A3
:1015F000D0250020DC25002008260020FC25002026
:101600009021002010B504462088102804D011280D
:1016100006D01B280CD107E0204607F097FF08E012
:10162000204607F0CFFF04E0204608F04FF900E025
:1016300000BF00BF10BD000070B50546022D02D0EE
:10164000032D15D100E000BF0B48007878B10020D1
:10165000094908700948007800F040F8044634B1A0
:101660000748006818B1204605490968884700E026
:1016700000BF00BF70BD0000852100208721002031
:101680009C21002010B574DF01200F490870002054
:101690000E49087006200E49C87000210C48FFF75B
:1016A000ADFE04460CB1204610BD0A48007800F09B
:1016B00015F8044634B10848006818B120460649B8
:1016C000096888470020EFE7A0210020A221002020
:1016D00098250020872100209C2100207FB5054609
:1016E0004D48007810B9082004B070BD4B48057013
:1016F00002F054FF20B10120494908700020F3E7AF
:10170000484800210160818081714748407818B1C4
:101710004248007801280DD04348807818B13F48EE
:101720000078012806D04048807888B13B4800788E
:1017300002280DD13D48006838B101203C490870AD
:1017400008203A490968884702E0002038490870B3
:101750002846FFF7E7FA3149087034480068C0B1FD
:1017600008460078032803D008460078042810D1E2
:101770002D48007868B12F48007850B900202E49D4
:10178000087001202D4908700720284909688847FA
:1017900002E000202949087000200090019002908A
:1017A00003908DF800008DF808001C48007805288B
:1017B0001CD2DFE800F01703080D120068460AF09B
:1017C000EBFF044613E068460AF0F6FF04460EE01D
:1017D00068460BF007F8044609E068460BF032F85B
:1017E000044604E000201649087000E000BF00BF76
:1017F0000A48007828B1684673DF04460CB12046D9
:1018000072E70A48006820B10D4800780749096866
:101810008847002068E700008421002087210020FD
:101820008521002088210020782500209821002093
:101830008F210020A0210020A2210020A121002032
:101840008621002030B587B004460D460020059063
:10185000069069462846FFF789FDADF81400002080
:10186000ADF81600CDF818D02189208B05AAA4DF89
:1018700007B030BD70B594B004460D4628682060AE
:101880004FF6FF70208300BF01208DF84E0041F617
:101890000F00ADF84C0000BF221D13A90120A0DFEE
:1018A000064616B1304614B070BDD5F8060010904B
:1018B000D5F80A001190E889ADF848002879A071A0
:1018C000202103A8FDF7D1FD42F61920ADF80C0048
:1018D0001420ADF810000BA910A8FFF747FDADF8D4
:1018E00012000BA80590A1799DF8190061F304106E
:1018F0008DF819009DF8190020F00200801C8DF869
:10190000190001208DF81D008DF81F008DF81800BA
:101910000020019002900A208DF804000120ADF80B
:101920000A00FE208DF8050001208DF8080042F223
:101930000270ADF8060001A80A90A08804F1080220
:1019400003A901F017FB06460EB13046ABE70020B5
:10195000A9E770B505460C462088102806D0112846
:1019600009D050280CD0512814D10EE02146284629
:1019700007F0E2FD0FE02146284607F015FE0AE0D9
:10198000A11D284608F000F805E0211D284607F0B3
:101990006EFF00E000BF00BF70BD000070B50546DF
:1019A0001C2229461248FDF747FD00201149087006
:1019B000286850B1104829680A6802604968416087
:1019C0007ADF04463CB1204670BD0B487BDF0446FD
:1019D0000CB12046F8E74FF6FF7008490880002058
:1019E00007490870074A00210748FFF717FBEBE794
:1019F00028260020B8210020A4210020AE210020AC
:101A0000AC21002055D9020004E2020010B50446C2
:101A10002088102806D0112808D012280ED050286F
:101A200010D107E0204607F06BFD0CE0204607F0E0
:101A30009BFD08E0204607F081FF04E0204607F008
:101A400053FD00E000BF00BF10BD000010B504460C
:101A50000348027D011D20460AF0B1FB10BD0000C5
:101A60006426002010B504460348C17D2246001DAF
:101A70000AF08EFB10BD00006426002010B504465D
:101A80000348017E2246001D0AF082FB10BD0000C3
:101A90006426002070B504462088102804D0112840
:101AA0001DD01A2840D11EE00AF08EF8A08809F057
:101AB00005FF20B900BF0420FFF7A2FA0EE0E07B8B
:101AC000022801D1012000E000200546A2882B4613
:101AD0001649A1F112000AF093FB00BF24E0A08890
:101AE0000AF094F820E0207A0121B1EB101F01DA0E
:101AF000012000E000200346A2880C49491CA1F106
:101B000013000AF07DFB207A0221B1EB101F01DAED
:101B1000012000E000200346A2880449891CA1F1AD
:101B200014000AF06DFB00BF00BF70BD7A260020D4
:101B300070B5044600250B48017D2246001D0AF0C1
:101B400027FB60B10748817D2246001D0AF020FB7B
:101B500006460EB1022000E00120054600BF2846DF
:101B600070BD00006426002010B500240AE0204665
:101B70000BF042FF20B920460BF034FF204610BD89
:101B8000601CC4B2182CF2DB1820F8E710B504462C
:101B900020460BF031FF10B10248005D10BD00205F
:101BA000FCE700007D26002070B505460C46204667
:101BB0000BF022FF30B10448015D2A4615380AF0C7
:101BC000E7FA70BD0020FCE77D26002070B50546D1
:101BD0000C46164620460BF00FFF30B103480119A2
:101BE00033462A4615380AF00BFB70BD7D260020CF
:101BF0002DE9FC4105460C46174620880930B842BD
:101C000002D90C20BDE8FC8168466DDF064600BFA6
:101C10000EB13046F6E700BF0820218868542088BE
:101C2000401C20801B20218868542088401C208074
:101C300020882844DDF801100160BDF8051081807E
:101C40002088801D20809DF80000400818B90020E1
:101C50002188685402E00120218868542088401CB3
:101C600020800020CEE770B5ADF50C7D04460E4611
:101C7000306820604FF6FF70A4F84E0000BF0120CE
:101C80008DF82A0241F60A00ADF8280200BF221D95
:101C90008AA90120A0DF05461DB128460DF50C7D5F
:101CA00070BDD6E901018991889020217BA8FDF7BC
:101CB000DCFB42F62920ADF8EC011420ADF8F00170
:101CC00083A988A806F01FFCADF8F20183A87D90D7
:101CD0009DF8F90120F00200801C8DF8F901012027
:101CE0008DF8FD018DF8F801A088A21D7BA901F0F7
:101CF00041F905460DB12846D0E7D6E903017A91AE
:101D0000799020216CA8FDF7B0FB42F62420ADF8B5
:101D1000B0011420ADF8B40174A979A806F0E3FD70
:101D2000ADF8B60174A86E909DF8BD0120F00200D8
:101D3000801C8DF8BD0101208DF8C1018DF8BC011A
:101D4000A08804F10E026CA901F014F905460DB14A
:101D50002846A3E7D6E905016B916A9020215DA88A
:101D6000FDF783FB42F62520ADF874011420ADF891
:101D7000780165A96AA80AF0D4FBADF87A0165A8D4
:101D80005F909DF8810120F00200801C8DF8810198
:101D900001208DF885018DF88001A08804F11602DC
:101DA0005DA901F0E7F805460DB1284676E7D6E9CA
:101DB00007015C915B9020214EA8FDF756FB42F68F
:101DC0002720ADF838011420ADF83C0156A95BA8D6
:101DD00005F05AFAADF83E0156A850909DF845011D
:101DE00020F00200801C8DF8450101208DF849018A
:101DF0008DF84401A08804F11E024EA901F0BAF842
:101E000005460DB1284649E7D6E909014D914C90A8
:101E100020213FA8FDF729FB42F62620ADF8FC0063
:101E20001420ADF8000147A94CA802F012FBADF850
:101E3000020147A841909DF8090120F00200801C92
:101E40008DF8090101208DF80D018DF80801A08899
:101E500004F126023FA901F08DF805460DB1284690
:101E60001CE7D6E90B01CDE93D01202130A8FDF7A3
:101E7000FCFA42F62820ADF8C0001420ADF8C400EA
:101E800038A93DA80BF0A4F8ADF8C60038A83290E8
:101E90009DF8CD0020F00200801C8DF8CD000120BF
:101EA0008DF8D1008DF8CC00A08804F12E0230A965
:101EB00001F060F805460DB12846EFE606F138005E
:101EC0000FC8CDE92E23CDE92C0120211FA8FDF755
:101ED000CCFA42F62320ADF87C001420ADF8800047
:101EE00027A92CA80BF04CF9ADF8820027A8219067
:101EF0009DF8890020F00200801C8DF889000120E7
:101F00008DF88D008DF88800A08804F136021FA995
:101F100001F030F805460DB12846BFE6D6E91201BA
:101F2000CDE91D01202110A8FDF79FFA42F62A20D5
:101F3000ADF840001420ADF8440018A91DA805F024
:101F4000FFF9ADF8460018A812909DF84D0020F05A
:101F50000200801C8DF84D0001208DF851008DF895
:101F60004C00A08804F13E0210A901F003F80546D8
:101F70000DB1284692E6306D0E90706D0F902021C5
:101F800001A8FDF772FA42F65020ADF804001420C3
:101F9000ADF8080009A90EA809F03AFBADF80A004F
:101FA00009A803909DF8110020F00200801C8DF814
:101FB000110001208DF815008DF81000A08804F1A3
:101FC000460201A900F0D6FF05460DB1284665E698
:101FD000002063E670B505460C462088102806D020
:101FE000112809D050280CD0512814D10EE02146D8
:101FF000284607F0A4FA0FE02146284607F0D8FA51
:102000000AE0A11D284607F0DAFC05E0211D28465C
:1020100007F034FC00E000BF00BF70BD10B50446FF
:102020002046FFF737FD204608F0E4FF2046FFF783
:10203000EDFC204600F04EFA2046FFF7E3FA20467A
:1020400007F0CCF9204600F0FBF92146014806F0E4
:1020500036FD10BD4823002070B5B4B004460E46CE
:10206000306820604FF6FF70E083674991E80D000B
:10207000C9682FAD0DC532912EA92FA863DF054683
:1020800015B1284634B070BD9DF8B8008DF8CE006B
:1020900043F6FC60ADF8CC00221D33A90120A0DF7F
:1020A00005460DB12846EDE7B0882D90202120A8E7
:1020B000FDF7DBF949F2CC10ADF880009DF8CE00B9
:1020C0008DF882001420ADF8840028A92DA801F015
:1020D000EBFBADF8860028A822909DF88D0020F03B
:1020E0000200801C8DF88D0001208DF891009DF874
:1020F0008D0020F0080008308DF88D0001208DF84B
:1021000092008DF88C00A088A21D20A900F032FF5B
:1021100005460DB12846B5E706F108000FC8CDE920
:102120001E23CDE91C0120210FA8FDF79EF94EF6D4
:102130008C10ADF83C009DF8CE008DF83E001420C8
:10214000ADF8400017A91CA806F03FFAADF8420010
:1021500017A811909DF8490020F00200801C8DF80E
:10216000490001208DF84D009DF8490020F008003D
:1021700008308DF8490001208DF84E008DF8480098
:10218000A08804F10E020FA900F0F4FE05460DB17F
:10219000284677E7B0690E90202101A8FDF765F980
:1021A00049F21E10ADF804009DF8CE008DF806002F
:1021B0001420ADF8080009A90EA800F038FEADF80B
:1021C0000A0009A803909DF8110020F010001030BB
:1021D0008DF811009DF8110020F00200801C8DF890
:1021E000110001208DF815008DF817008DF81000F2
:1021F000A08804F1160201A900F0BCFE05460DB14D
:1022000028463FE700203DE798E2020070B505460A
:102210000C462088102806D0112809D050280CD050
:10222000512814D10EE02146284607F08CF90FE022
:102230002146284607F0C1F90AE0A11D284607F00B
:10224000BFFB05E0211D284607F01FFB00E000BF93
:1022500000BF70BD70B504460D462846FDF710F965
:102260002080656070BD70B5044620460BF03AFBD7
:10227000054605F0010070BD70B588B027480068BC
:10228000079000BF00235022254907A80AF040FE0E
:10229000054600BF2E4626B100BF3046FEF7B0FE11
:1022A00000BF00BF00BF6A46012100200AF010FEF7
:1022B000044600BF254625B100BF2846FEF7A0FE14
:1022C00000BF00BF1720ADF8100068460AF0ECFD13
:1022D000044600BF254625B100BF2846FEF790FE04
:1022E00000BF00BF0F480AF0D3FD044600BF2546DB
:1022F00025B100BF2846FEF783FE00BF00BF0A4895
:102300000AF05AFE044600BF254625B100BF284604
:10231000FEF776FE00BF00BF08B070BDC4E102004A
:10232000302400201D2002006FD1020010B5A2B0A1
:1023300058210CA8FDF799F836480C9036A10DA845
:10234000FFF788FF34A10FA8FFF784FF32A111A87F
:10235000FFF780FF30A113A8FFF77CFF2EA115A87F
:10236000FFF778FF2CA117A8FFF774FF00201A9041
:102370001B9000211C9101218DF87C102A481E9091
:1023800001208DF880000CA80021ADF88210ADF876
:102390008410ADF886100CA92448FFF764FC0446AD
:1023A00014B1204622B010BD0020089009900A9078
:1023B0000B901F48089001208DF8240000208DF814
:1023C000260008A91B48FFF755FA04460CB1204621
:1023D000E8E71C2101A8FDF748F817480190002004
:1023E000ADF808008DF80C0001A80021ADF80E1022
:1023F000ADF810100591069100208DF81C0001A980
:102400000E48FFF729FE04460CB12046CAE700201B
:10241000C8E7000061950200494E495449414C20EB
:1024200056414C55450000005C21002080240020CE
:10243000C3930200D0240020C5960200EC240020A3
:1024400010B5044621460648FFF7C4FD214605485D
:10245000FFF77FFA21460448FFF7D8FE10BD0000C1
:1024600080240020D0240020EC24002010B5044655
:1024700005F060FE10BD70B504460D468020208139
:10248000802161816421E17321743020A88005F0EE
:102490008BFE286005F01EFE70BD000070B505467D
:1024A0000C4600260948056044B120460AF0F2FDBA
:1024B000064600BF0EB1304670BD00BF044800683C
:1024C00010B9FEF771FC06463046F5E77C21002086
:1024D0008021002070B505462888102802D01128D8
:1024E0002CD115E01748006860B901F021F80446C6
:1024F00000BF34B11448006818B120461249096879
:10250000884700BF0F480068401C0E49086016E06D
:102510000C480068401E0B4908600846006860B916
:10252000FEF742FC044600BF34B10748006818B10A
:10253000204605490968884700BF00E000BF00BF8A
:1025400070BD0000802100207C21002010B50320F8
:1025500000F03EFC044600BF1CB1062C01D0204612
:1025600010BD00BF0020FBE72DE9F04105460F46F6
:102570004FF00008002400E0641C042C04D22A4818
:1025800050F82400A842F7D1042C41D227B3012FE0
:1025900002D0022F3BD133E004EB4400234911F871
:1025A000008004EB44000844407868B1204800688B
:1025B00000EB800041001F4A1F480068FEF792FDB3
:1025C00006460EB91B48057004EB44001749084441
:1025D00080781A4908551AE017480068FEF7ACFDE4
:1025E0001648005D04EB4401104A11448978884282
:1025F00005D104EB44001146084490F8028006E03F
:1026000004EB44000949084490F8018000BF00BF72
:10261000B8F1000F06D00A48006818B140460849D2
:1026200009688847BDE8F081D4E102004C2500200C
:102630006421002074210020D0E1020075210020D7
:102640007021002010B50246042A0ED2094B1B68E7
:10265000D843094B13F822400123A34003400BB198
:10266000012300E000230B7001E00020087000202F
:1026700010BD000010050050D4E1020070B5054601
:10268000042D06D0072D15D00A2D28D10AF080F987
:1026900026E013211348008876DF0446082C08D072
:1026A00000BF264626B100BF3046FEF7A9FC00BF9A
:1026B00000BF15E00B4800884FF6FF7188420DD12E
:1026C000FEF7E0FF0446082C08D000BF264626B1DE
:1026D00000BF3046FEF794FC00BF00BF00E000BF23
:1026E00000BF70BD3021002030B503460020042B10
:1026F00023D2012A07D1012903D103F10D04E4B249
:1027000000E00024224679B1012902D0022911D12A
:1027100004E003EB43040A4D2A550DE003EB4304A8
:10272000074D2C44627007E003EB4304044D2C4436
:10273000A27001E0072000BF00E0072030BD0000CC
:102740004C25002070B5044600250548007800F0AF
:10275000010018B1204600F06DF80546284670BD0E
:10276000682100202DE9F04105460E4690460024E0
:1027700025480660254805602548C0F8008005F01A
:102780000200F8B1002706E0012211463846FFF7A3
:10279000ABFF04467F1C042F01D2002CF4D02CB9CF
:1027A000720804211B48FEF7B5FB044614B9FEF776
:1027B0009BFB04462CB9184A00211848FEF72EFC52
:1027C000044600BF05F0010068B100BF4FF4F010EF
:1027D000134908600020091D086000BF4FF4F01085
:1027E0000F49103108602CB90E4A00210E48FEF73F
:1027F00015FC04462CB90D4A01210D48FEF70EFCCC
:1028000004462046BDE8F0816421002068210020B4
:1028100070210020E4E10200212E0200D0E102003C
:1028200008050050117A0200C8E10200C50E02003E
:10283000CCE102002DE9F041044600260025182CC9
:102840007DD2DFE804F00C1D1E68B4EEEDECEBEA7F
:10285000E9E8E7E6E5E4E3E2E1E0DFDEDDDC00BF56
:10286000FD4801684FF4F010884300F4F010FB4974
:1028700008600020091D086000BFF948047098E254
:1028800000BF00BFF44801684FF4E010884300F433
:10289000F010F24908600020091D086000BFEF48F1
:1028A000001F006880F4F01000F4003088B100BF11
:1028B0004FF40030091F08600020091D086000BFA8
:1028C000022C02D14FF4E16001E04FF47A6005463A
:1028D00010E000BF4FF40030E049091D08600020FF
:1028E000091F086000BF022C01D1C82001E04FF48D
:1028F000C8700546DA4804706420B5FBF0F0D94989
:10290000096800FB01F700223946D7480068FEF746
:10291000E9FB06464DE200BFCF4801684FF4E010E6
:10292000884300F4F010CD4908600020091D0860BC
:1029300000BFCA48001F006880F4F01000E037E2D2
:1029400000F4003088B100BF4FF40030091F086068
:102950000020091D086000BF032C02D14FF448700D
:1029600001E04FF47A60054610E000BF4FF40030FC
:10297000BA49091D08600020091F086000BF032C28
:1029800001D1C82001E04FF4C8700546B448047076
:102990006420B5FBF0F0B349096800FB01F70022A1
:1029A0003946B1480068FEF79DFB064601E200BFCC
:1029B000A94801684FF4E010884300F4F010A749DB
:1029C00008600020091D086000BFA448001F0068BF
:1029D00080F4F01000F4003020B300BF4FF400305A
:1029E000091F08600020091D086000BF042C02D1E7
:1029F0004FF47A6001E04FF47A60054624E0CBE1C1
:102A0000C9E1B3E19DE187E179E13FE13DE13BE1EE
:102A100039E137E12AE105E1EDE0D3E0BBE0A1E0F7
:102A20006CE022E000BF4FF400308C49091D0860C3
:102A30000020091F086000BF042C02D14FF4C870A9
:102A400001E04FF4C8700546854804706420B5FB6A
:102A5000F0F08449096800FB01F7002239468248FA
:102A60000068FEF73FFB0646A3E100BF7A48016815
:102A70004FF4E010884300F4F0107849086000201B
:102A8000091D086000BF7548001F006880F4F01041
:102A900000F4003080B100BF4FF40030091F08601F
:102AA0000020091D086000BF052C01D1C82001E0ED
:102AB0004FF47A60054610E000BF4FF400306749DC
:102AC000091D08600020091F086000BF052C01D106
:102AD000C82001E04FF4C8700546614804706420C6
:102AE000B5FBF0F05F49096800FB01F700223946A9
:102AF0005D480068FEF7F6FA06465AE100BF564800
:102B000001684FF4E010884300F4F0105349086066
:102B10000020091D086000BF5048001F006880F4B5
:102B2000F01000F4003040B100BF4FF40030091F36
:102B300008600020091D086009E000BF4FF4003064
:102B40004649091D08600020091F086000BF44486D
:102B5000047044480022016843480068FEF7C2FA46
:102B6000064626E100BF3C4801684FF4E010884368
:102B700000F4F010394908600020091D086000BF0A
:102B800000BF4FF4003008600020091F086000BF3C
:102B9000334804700DE100BF3049091F08684FF445
:102BA000802181432D4A116000F48021121D1160A3
:102BB00000BF2C48002201682B480068FEF792FAFB
:102BC0000646F6E000BF2549091F08684FF480213A
:102BD0008143224A116000F48021121D116000BF60
:102BE0002048006800EB800100221F480068FEF7C3
:102BF00079FA0646DDE000BF1849091F08684FF45E
:102C000080218143154A116000F48021121D11605A
:102C100000BF14480022016813480068FEF762FAFA
:102C20000646C6E000BF0D49091F08684FF4802121
:102C300081430A4A116000F48021121D116000BF17
:102C40000848006800EB8001002207480068FEF792
:102C500049FA0646ADE000006C210020080500504E
:102C60006021002064210020C8E1020000BF4FF471
:102C7000F010524908600020091F086000BF50484A
:102C8000047096E000BF00BF00BF00BF4D48006861
:102C9000FEF752FA0646C4F111050DB306BB4FF418
:102CA000002049490860012D0FD9C82068436421DC
:102CB000B0FBF1F04549096800FB01F700223946F5
:102CC00040480068FEF70EFA064600BF3E4800681E
:102CD00000F4F010394908600020091F08600DE079
:102CE00000BF3948006800F4F0103449091F08603B
:102CF0000020091D086000BF3349086059E000BF8B
:102D00004FF4F0102D49091F08600020091D0860CC
:102D100000BF2B4804704CE000BF4FF4E01027497F
:102D2000091F08600020091D086000BF00BF4FF4A4
:102D3000003008600020091F086000BF20480470B0
:102D400037E000BF4FF4D0101C49091F0860002075
:102D5000091D086000BF00BF4FF4802008600020FC
:102D6000091F086000BF1648047022E000BF4FF43E
:102D7000C0101249091F08600020091D086000BF2B
:102D800000BF4FF4C02008600020091F086000BF8A
:102D90000B4804700DE000BF00BF4FF4F01007496E
:102DA00008600020091F086000BF0548047000E0AB
:102DB00000BF00BF3046BDE8F08100000C050050A8
:102DC00060210020CCE102006C2100206421002061
:102DD00030B5024600201AE00F4C54F82040A40001
:102DE00004F1A044D4F800170124844014400CB12D
:102DF000032400E00024234621F4403141EA03414A
:102E0000064C054D55F8205044F82510401C042868
:102E1000E2D3002030BD0000D4E1020000070050E2
:102E200010B5044620780221FFF79EFB10BD30B597
:102E30000246002015780446401C0D5530BD0000A8
:102E4000F8B50546134A40F6CD410320FFF78AFC4A
:102E5000044600BF264626B100BF3046FEF7D0F834
:102E600000BF00BF69460020FFF718FB044600BF03
:102E7000264626B100BF3046FEF7C2F800BF00BFAD
:102E80009DF80000022801D1012000E000202870F8
:102E9000F8BD00007D26020001468879012809D18D
:102EA0000879012806D1488842F60212904201D1E1
:102EB000012070470020FCE74FF0FF31054A42F83F
:102EC0002010082804DBFF23A0F1080150325354DE
:102ED00070470000D82A00200146024850F821001F
:102EE00070470000D82A00202DE9F04F03460C4619
:102EF0004FF0FF390AB1002000E0082084460AB1F3
:102F0000082000E00C208046614624E0154850F877
:102F10002100401CF0B91D460846274616464FFAC8
:102F200080FBDFF840A00AF1300A0AF805B0DFF8AC
:102F300034A04AF820704EB94FFA85FBA0F1080A78
:102F4000DFF820E00EF1500E0EF80AB000BF4FFA85
:102F500081F902E0491C4145D8D300BF4846BDE88D
:102F6000F08F0000D82A00200146014840567047E3
:102F7000082B002070B590B006460C461546A07888
:102F800018B901208DF80E0002E0A0788DF80E002F
:102F90002088ADF80C0000200290607C02A909F0A6
:102FA00081FCA07C0DF1090109F07CFCE07B08B1FB
:102FB000012000E000209DF80A1060F3C3018DF8A5
:102FC0000A10207C08B1012000E000209DF80A10C2
:102FD00060F304118DF80A10207B08B1012000E095
:102FE00000209DF80A1060F300018DF80A10207D82
:102FF00008B1022000E001209DF80A1060F34201B0
:103000008DF80A101C2109A8FCF72FFA607BC0F389
:10301000001018B9607BC0F34010F8B10020009098
:10302000E07C0DF1010109F03DFC00BF9DF80000BE
:1030300020F00F00401C8DF800009DF8000020F0EB
:10304000F00010308DF8000000BF9DF8020020F065
:103050000600801C8DF80200CDF838D0607B8DF81A
:103060002400A07B8DF82500142104A8FCF7FDF9AD
:1030700003A8049002A80590A088ADF81C00A068E1
:1030800020B1E088ADF81800A0680890A069002879
:1030900049D000200190A0690088ADF82C00A069FB
:1030A0004088ADF82E00A06940680A9001A80D90F4
:1030B000A169087B01A909F0F5FBA169487B0DF125
:1030C000050109F0EFFBA069807A08B1012000E05A
:1030D00000209DF8061060F3C3018DF80610A0696A
:1030E000C07A08B1012000E000209DF8061060F3CE
:1030F00004118DF80610A069007A08B1012000E0E3
:1031000000209DF8061060F300018DF80610A069FC
:10311000807B08B1022000E001209DF8061060F3DA
:1031200042018DF80610E06908B1E0690C902B4669
:1031300004AA09A93046A2DF10B070BD014639B11A
:103140000448884204D80448884201D901207047C5
:103150000020FCE7382300204823002070B50546F6
:103160000E46002407E055F8340004F043FC08B98B
:10317000002070BD641CB442F5D30120F9E70000C3
:103180000A49496C81B10949096C084A02EBC1013D
:103190000160114691F84010491C01F007011164CB
:1031A0001146496C491E516470470000342C0020C0
:1031B000064902688A4203D00168083101607047FD
:1031C00002493839016000BFF9E700006C2C00208B
:1031D0000178022902D0017803290BD106490A6C33
:1031E000817D1144044A116411464A6C817D511A53
:1031F000014A516470470000342C00202DE9F04151
:1032000004460D464FF6FF76304684420AD14FF40D
:103210008071284607F0A8FE0646B6F5807F0FD1DC
:1032200026460DE0FF2C0BDC2146284607F08CFEDD
:1032300007460FB1204601E04FF6FF70064600BF7B
:103240003046BDE8F081000010B502E0204603F0F2
:1032500078FB0348FCF7CBFB041EF7D110BD000040
:103260009C22002070B505460DB9094C01E0084CC0
:10327000083409E0204604F0C5FB064606B904E020
:1032800028467168884700BFF4E700BF70BD0000A2
:10329000CC2A00202DE9F04782461F48006800280C
:1032A00036D01D480068056808F00CFE07461B482C
:1032B00004682146384609F0C1FFC61C184800784A
:1032C00008B908F011FEAE4201D2284600E03046AF
:1032D000044424F07F44204608F0EEFD08F0F2FD9F
:1032E00080463946404609F0A9FF00F103093946F6
:1032F000204609F0A3FF814509D908F0E3FD814686
:1033000008F0DAFD2F2005F02BFC0AF0EFF801E0C1
:1033100008F008FEBDE8F087382200203C2200209B
:103320005022002001460888062808DB0888B0F5EE
:10333000486F06DD08884FF6FF72904201D00720E3
:1033400070474888062808DB4888B0F5486F06DDD6
:1033500048884FF6FF72904201D00720F0E70888B6
:103360004FF6FF72904208D04888904205D00888F6
:103370004A88904201DD0720E2E70020E0E72DE9DE
:10338000F04106460D46144698462088801D40456B
:1033900002D90C20BDE8F0813046FFF7C3FF074695
:1033A00000BF0FB13846F5E700BF052021886854FB
:1033B0002088401C20801220218868542088401CCE
:1033C00020802288511930880AF092FA2188084416
:1033D00020802288511970880AF08AFA21880844CE
:1033E00020800020D6E710B5044600BF2046FDF738
:1033F00007FE00BF10BD000030B587B01C21684635
:10340000FCF733F8002000904FF4203001904FF487
:103410007020029003208DF80C000020ADF80E0003
:103420008DF8100009480590094806906846FEF797
:10343000B5FA044600BF254625B100BF2846FDF772
:10344000DFFD00BF00BF07B030BD0000BD9402002B
:10345000E733020038B51B4804F0AEFA20BB1A4827
:10346000007848B119484069E8B100200090174839
:1034700041696846884716E01548007810B9134836
:10348000456801E011488568002229461148006816
:10349000FDF728FE044634B10C48806918B10B488A
:1034A00081692046884709E00848406930B1012019
:1034B0000090064841696846884700BF00200249DD
:1034C000087038BDB0210020B82100202826002037
:1034D000AC21002004E202003EB504462088FEF73D
:1034E000C1FAD0B1208810490978FEF75DFB28B9F0
:1034F000208800220D490978FEF768FB2088ADF886
:10350000020005208DF800002088FEF7B7FA8DF83C
:103510000400684600F04CFC05E02088012241F2DE
:10352000060100F077FA3EBD0322002002220020AF
:1035300010B5012200210846FFF7D6F8044600BF67
:103540001CB1072C01D0204610BD00BF072202216C
:103550000120FFF7C9F8044600BF1CB1072C01D0B9
:103560002046F1E700BF042202210020FFF7BCF84B
:10357000044600BF1CB1072C01D02046E4E700BF81
:103580000020E1E710B588B0002005900690079074
:10359000FF208DF80C000A20ADF806000520ADF8DC
:1035A00004001920ADF80800ADF80A0001AA0021B6
:1035B0005148006803F044FC5049086050A151A0F4
:1035C00003F05CF9044621464C48006803F0B2FC65
:1035D0000A20ADF806002320ADF804005A20ADF80B
:1035E00008001920ADF80A0049A0049001AA0021A2
:1035F0004148006803F040FC464908602820ADF8C7
:1036000006000520ADF804001920ADF80800ADF85B
:103610000A0001AA00213848006803F011FC3E4965
:10362000086037A13DA003F029F9044621463A4835
:10363000006803F07FFC2820ADF806002320ADF8D9
:1036400004005A20ADF808001920ADF80A0036A091
:10365000049001AA00212848006803F00DFC3449B9
:1036600008604620ADF806000520ADF804001920DA
:10367000ADF80800ADF80A0001AA00211E48006854
:1036800003F0DEFB2B4908601DA12BA003F0F6F828
:10369000044621462748006803F04CFC4620ADF85C
:1036A00006002320ADF804005A20ADF808001920C8
:1036B000ADF80A001CA0049001AA00210E48006881
:1036C00003F0DAFB1F4908606420ADF8060005200E
:1036D000ADF804007820ADF808001920ADF80A0014
:1036E00019A0049001AA00210348006803F0C4FB5C
:1036F0001749086008B010BDC42200203C210020FA
:103700007262000048454152542E626D7000000004
:103710002D2D2D00382100204421002053504545F7
:10372000442E626D700000002D2D2E2D2D00000006
:10373000402100204821002042494B452E626D70F7
:10374000000000004C21002030353A3331000000E9
:103750005021002070B505460E460A4C0EE015B10A
:103760002068A84209D116B16068B04205D120682E
:1037700000F0A6F800202060606010340248844207
:10378000EDD370BD604600206048002070B506464D
:103790000D460EB1012070BD287920B1012809D055
:1037A000022813D10FE0284608F0F2F80446022060
:1037B00028710DE0284600F07DFD04460A2C01D159
:1037C00041F61D5404E041F61D5401E00F2400BFF2
:1037D00000BF2046DFE700002DE9F04781460025C5
:1037E00032E01C48006800EBC5042178012000FA93
:1037F00001F619480068304020B317480068B0430C
:1038000015490860207805F031FB07462178012032
:103810008840124909680840217807FA01F1884276
:103820000FD16078012800D100E00020784080F0BE
:103830000108606820B108F0FF01207862689047B5
:1038400000BF00BF681CC5B2054800788542C8DBD0
:10385000BDE8F0871C2200202C2200202822002016
:103860002022002070B5044620793D2802D141F283
:103870003D0001E04FF4885005462088002229468B
:1038800004F032FA70BD2DE9F04105460E461746A8
:10389000002431192A1BD0B23A46FDF779FD2044A5
:1038A000C4B22046BDE8F08170B506460D4600243E
:1038B00029193046FDF77DFD2044C4B2204670BD75
:1038C00010B50446207900F0030002280CD1A0882E
:1038D00040F00100A08001202082A08820F002009A
:1038E000A080204603F0BDF810BD2DE9F04105464B
:1038F0000F4616469846069CB4F94C00B8420CDCBC
:10390000B4F95000B84208DDA919B4F94A0081425F
:1039100003DDB4F94E00A84201DCBDE8F081B4F942
:103920004A00A84206DD4A20005D401B301AC6B29C
:10393000B4F94A50A919B4F94E00814203DD4E2072
:10394000005D401BC6B2B8F1800F0CDDA585E78590
:10395000A819401E01B2A1864820015D3C200155F6
:10396000204603F0A9FC00BFD7E710B50446B4F920
:103970002C00B4F92410884211DBB4F92C00B4F9FE
:10398000281088420BDAB4F92E00B4F926108842C8
:1039900005DBB4F92E00B4F92A10884200DB10BD13
:1039A00000BF204602F092F900BF00BFF7E7000019
:1039B000014614480078144A127890421DD01148EC
:1039C0000078401C0F4A107010460078022801D180
:1039D000002010700D480B4A127850F82200086041
:1039E0000B4A086812681044094A106010460068C3
:1039F00020F07F401060012070470020086000BF69
:103A0000FAE700004822002049220020402200203E
:103A10003C220020FEB504460D461646094A07CA58
:103A20008DE80700ADF80240ADF804508DF806604F
:103A30000022054801782046FEF7C8F8684600F0E5
:103A4000B7F9FEBD88E202000222002010B504464C
:103A5000A08928DF10BD000013480078062820D177
:103A60001148001D007800F00F00D0B90E48083052
:103A7000007800F0F000302801D1012070470A489A
:103A80000830007800F0F000402801D10120F5E76F
:103A900005480830007800F0F000502801D10120DE
:103AA000ECE70020EAE70000E00F00F00A480078A9
:103AB00006280ED10848001D007800F00F0040B91C
:103AC00005480830007800F0F000302801D10120CE
:103AD00070470020FCE70000E00F00F0134800787A
:103AE000062820D11148001D007800F00F00D0B941
:103AF0000E480830007800F0F000302801D1012095
:103B000070470A480830007800F0F000402801D1E2
:103B10000120F5E705480830007800F0F000502853
:103B200001D10120ECE70020EAE70000E00F00F0FF
:103B30000A48007806280ED10848001D007800F0D9
:103B40000F0040B905480830007800F0F000302838
:103B500001D1012070470020FCE70000E00F00F0D9
:103B600013480078062820D11148001D007800F085
:103B70000F00D0B90E480830007800F0F00030286F
:103B800001D1012070470A480830007800F0F000A9
:103B9000402801D10120F5E705480830007800F001
:103BA000F000502801D10120ECE70020EAE70000F6
:103BB000E00F00F00A48007806280ED10848001DE2
:103BC000007800F00F0040B905480830007800F098
:103BD000F000302801D1012070470020FCE70000F0
:103BE000E00F00F00A48007806280ED10848001DB2
:103BF000007800F00F0040B905480830007800F068
:103C0000F000302801D1012070470020FCE70000BF
:103C1000E00F00F00A48007806280ED10848001D81
:103C2000007800F00F0040B905480830007800F037
:103C3000F000502801D1012070470020FCE700006F
:103C4000E00F00F00278072A34D2DFE802F03304F4
:103C500007102029300000220A702CE001220A708F
:103C600003898B818388CB81C2688A6023E002222A
:103C70000A7003898B818388CB81C2688A60027C49
:103C8000062A01D1012300E000230B7413E0032274
:103C90000A70C3888B810389CB81C2688A600AE07D
:103CA00004220A70C3888B810023CB8103E00522A4
:103CB0000A7000E000BF00BF7047000070B5054605
:103CC000002409E0064850F8240020B1044850F8C8
:103CD000241028468847641C082CF3D370BD0000CC
:103CE0009C2B00203EB505460C46DCB1112C19D0AA
:103CF0000020009001900290ADF8025001940D2C2C
:103D000003D10B208DF8000008E0042C03D10A2019
:103D10008DF8000002E009208DF80000684600F0F0
:103D200057F800BF3EBD000070B50546002405E011
:103D3000044850F8241028468847641C002CF7D00B
:103D400070BD0000BC21002070B50546002405E0D0
:103D5000044850F8241028468847641C002CF7D0EB
:103D600070BD0000C821002070B50546002405E0A4
:103D7000044850F8241028468847641C022CF7D3C6
:103D800070BD000020E2020070B50546002405E089
:103D9000054850F8241028468847641C03480078DA
:103DA0008442F5DB70BD0000782A0020FE2100204F
:103DB00070B50546002405E0044850F82410284654
:103DC0008847641C022CF7D370BD000050E202004B
:103DD00070B50546002405E0044850F82410284634
:103DE0008847641C002CF7D070BD000094E20200EC
:103DF000F0B5034600241FE0124E306806689E426C
:103E000003D90668F61A06601AE006689B1B066866
:103E10003444002606600B4E35680A4FC6693E6082
:103E2000C66846B10E1926F07F464660C6688660B1
:103E30001668C661156000BF024800680028DBD123
:103E400000BFF0BD38220020704700001FB50446B7
:103E5000606808B9012000E000200390207806285F
:103E60007BD2DFE800F0820304304F7B00BFA089E3
:103E700000F045FA18B9E08907F099FE10B3A0895F
:103E800000F038FAADF80200E08907F08DFE8DF8F9
:103E900004002078012807D1606808B9002000E0FC
:103EA00003208DF8000006E0606808B9012000E0FA
:103EB00004208DF8000060680390A06802906846B6
:103EC00006F0B0FA52E0A08900F019FA18B9E089BA
:103ED00007F06DFEA8B1A08900F00CFAADF8020061
:103EE000E08907F061FE8DF80400606808B90220DF
:103EF00000E005208DF80000A0680290684606F0FA
:103F000091FA33E0A08900F0FAF928B3E08918BBF0
:103F1000A08900F0EFF9ADF80200E08907F044FE57
:103F20008DF80400FF208DF80400606838B9062081
:103F30008DF80000BDF8020006F08AFC02E00720C0
:103F40008DF8000000200E4908700E49087006F038
:103F5000C9FB684606F066FA08E006E008208DF81E
:103F60000000684606F05EFA00E000BF00BF0448AB
:103F7000007820B100200249087006F0B3FB1FBD95
:103F8000D9210020DA21002010B588B00446022093
:103F900000F086FA10B9022008B010BD4FF6FF708D
:103FA000844201D10420F7E705208DF804000120A8
:103FB0008DF80800ADF80A400022114601A805F06E
:103FC00041FD18B107F042FC0020E5E70820E3E7D7
:103FD00000B587B0022000F063FA10B9022007B0E4
:103FE00000BD06208DF8000000221146684605F04D
:103FF00029FD48B10548007810B101200349087334
:1040000007F024FC0020EAE70820E8E79C2C0020C9
:1040100010B58CB0142107A8FBF727FA022000F096
:104020003FFA28B107A8FFF749FE00200CB010BDE9
:10403000012000F035FA08B10020F7E7012000F078
:104040003BFA00F009FB05F009FE04460CB90B2011
:10405000ECE7062C0AD1022000F02EFA012000F035
:1040600005FA07A8FFF72AFE0020DFE701208DF8F8
:1040700000000C2C1AD2DFE804F0190619071914F5
:104080001915190B100C00BF00208DF804000EE06C
:1040900000BF03208DF8040009E002208DF8040021
:1040A00005E000BF01208DF8040000E000BF00BF64
:1040B00000221146684605F0C5FC07F0C7FB00204A
:1040C000B4E7000038B504460CB9052038BD694690
:1040D000204607F081FCE0B10F48BDF8001000EB6E
:1040E00001108089002812DDA07A80B10A48BDF84D
:1040F000001000EB01108089401E0749BDF8002028
:1041000001EB021188810020A072002502E0062543
:1041100000E00A252846D9E77C2C00207FB514460C
:104120001D462B46224601A9684607F0EDFB04B068
:1041300070BD37B50C4615462B4622466946002011
:1041400007F0E2FB3EBD37B50C4615462B4622462E
:104150000021684607F0D8FB3EBD024602B109B90E
:1041600005207047106808600020FAE738B504465B
:104170000D4604B10DB9052038BD6946204607F04B
:104180002BFCA8B161680B48BDF8002000EB0210C1
:104190008089401C074ABDF8003002EB0312908171
:1041A000296060680C3068600120A0720020E3E79D
:1041B0000A20E1E77C2C002070B504460D460CB9BE
:1041C000052070BD032300222946204609F0ECFD9E
:1041D000F7E770B504460D46022300222946204623
:1041E00009F0E2FD70BD70B505460E4614460CB9E7
:1041F000052070BD022322463146284609F0D4FD31
:10420000F7E700000146094A1278082A01D10C207C
:104210000AE0074A054B1B7842F82310034A12783C
:10422000521C024B1A7000207047000055220020DB
:104230009C2B0020F8B504460D46022000F030F912
:1042400008B90220F8BD0CB90520FBE769462846ED
:1042500009F080FF06461EB9BDF800002080658089
:104260003046EFE770B50446022000F019F908B9AE
:10427000022070BD0CB90520FBE72088022801DD73
:104280000420F6E720880A4901EB0016718960884E
:10429000C01C081A08D42188608809F04DFF00204E
:1042A00020806080002500E004252846E1E700002A
:1042B0007C2C00203EB504460C4B6A460021A01D14
:1042C00007F022FB05465DB9019807F0F3FB0546B0
:1042D000012006498988064A02EB0111887303E030
:1042E000024800210160416028463EBD6422002052
:1042F0007C2C00200146A1F5404080B27047014669
:10430000B1F5404F05DB4FF6FE70814201DC012024
:1043100070470020FCE72DE9F0410446B4F92C5029
:10432000B4F92E60A18D208E084407B2E18D608E15
:1043300008440FFA80F810E006E0204601F0C6FCC1
:10434000A08D401C00B2A085B4F92C00B842F4DB6B
:10435000E08D401C01B2E185A585B4F92E004045F1
:10436000EADBE685BDE8F0812DE9FC4105460E4615
:1043700017461C460548CDE900043B46324629460F
:10438000606C04F009FABDE8FC810000EB38020023
:104390000146FC2901DB02207047F42901DB0320E0
:1043A000FAE7E42901DB0420F6E7C42901DB052054
:1043B000F2E7842901DB0620EEE70720ECE7F0B501
:1043C00003460C461646002210E002EB4207186A2C
:1043D00000EBC7010888251A0888A04205DC488838
:1043E000A84202D935800846F0BD521C587F904241
:1043F000EBD80020F8E770B502460B46002413E026
:1044000004EB4406D06A00EB860108881D1A088870
:10441000984208DC4888A84205D9486830F81560F9
:104420008868304470BD641C92F82A00A042E7D826
:104430000020F7E710B50446A07EFF2802D0A07E3A
:1044400004F02CFF002060762071201D2168884731
:1044500010BD70B506460D46002429193046FCF7FC
:104460008DFF2044C4B2204670BD00000249097887
:104470008143014A117070475422002010B5044650
:104480002078182802D1FDF76FFB207010BD10B501
:1044900004462078182802D1FDF766FB207010BD75
:1044A000014604480078084008B101207047002008
:1044B000FCE7000054220020024909780143014A28
:1044C000117070475422002030B504461088C01C7B
:1044D000984201D90C2030BD02201588485510881B
:1044E000401C10800120158848551088401C108001
:1044F00015884C551088401C10800020EBE7000008
:104500002DE9F04106460C4615460027B846042C16
:1045100003D0112C01D0002C35D1042C03D14FF045
:104520000008012709E0112C03D14FF001080027F2
:1045300003E014B94FF000080027C5B13A4613480C
:1045400001783046FDF742FB42461148017830467B
:10455000FDF73CFB00220F4801783046FDF736FBA3
:1045600000220D4801783046FDF730FB0BE03A465B
:10457000084801783046FDF729FB42460648017895
:104580003046FDF723FBBDE8F08100001922002032
:1045900018220020152200201422002008B56846A9
:1045A00000F0BAF8009808B1012008BD0020FCE72F
:1045B000F8B505460C4616461F461C48007800F024
:1045C000010008B90120F8BD2846FEF7B7FD08B97B
:1045D0000220F8E70CB90320F5E7C4F30B0008B19B
:1045E0000620F0E72868A04204D804EB063069688A
:1045F000884201D90520E6E70EB90420E3E76846C2
:1046000007F068F808B90720DDE7009847600098D0
:104610000560022000990872C4F30F300099888168
:104620000098068207F01EF90020CCE76C220020DB
:1046300070B505460C46204607F080F870BD4FF077
:1046400010204169481C08B1084670474FF080505F
:1046500040690003F9E700002DE9F0412B482C499F
:10466000401A04092948401A0509FFF7E8FF0646E1
:104670002848007800F0010010B10020BDE8F0816A
:10468000002008E0224A02EB00110A6812B14A68D1
:1046900002B16D1E401CA042F4D300202BE01C4947
:1046A00001EB00124FF0000CC7B2002117E0DFF859
:1046B000608008EB0113D3F80080B8F1000F05D03B
:1046C000D3F80480B8F1000F00D007E093F80D8014
:1046D000E04502DD93F80DC0CFB200BF491CA142F6
:1046E000E5D30B4901EB07125660117BA6EB0131B4
:1046F00011601668401CA842D1D30648007840F0EB
:104700000100044908700020B8E700004823002099
:10471000382300206C220020014609B9032070478D
:104720000248406E08600020F9E70000B82C002025
:104730002DE9F84305460C4616461F46DDF8208055
:104740001F48007800F0010010B90120BDE8F8838F
:104750002846FEF7F3FC08B90220F7E706B10CB9CA
:104760000320F3E706F0030010B904F0030008B1DA
:104770000620EBE72868A04204D804EB87016868AC
:10478000884201D20520E1E70FB90420DEE7684640
:1047900006F0A0FF08B90720D8E70098C0F8048009
:1047A000009805600120009908720098C660009882
:1047B00004610098878207F055F80020C6E70000E2
:1047C0006C22002070B504461748006E00EB4000D4
:1047D000154901EBC0051548007800F0020068B1EA
:1047E000022C02D0032C08D103E0284604F08CFFF1
:1047F00003E0284604F072FF00BF12E00B48007887
:1048000000F0040068B10948007820F0040007496E
:1048100008700548406E20B10846007840F002005C
:10482000087006F0DDFF70BDB82C00206C2200205F
:104830003EB500BF9DF8000020F00F00401C009026
:104840009DF8000020F0F0001030009000BF0A2218
:1048500014A168467CDF044600BF254625B100BF91
:104860002846FCF7CDFB00BF00BF0020019002905E
:104870005020ADF80400A020ADF806000020ADF8EF
:1048800008004FF4C870ADF80A0001A87ADF0446AA
:1048900000BF254625B100BF2846FCF7B1FB00BF8D
:1048A00000BF3EBD6E6F6E654E6F7264696300003F
:1048B00070B505460DB1012070BD1848007B18B1D8
:1048C00000201649087301E000F0D4F8134800787E
:1048D00008281DD2DFE800F01C04080C101C141876
:1048E00000F03CF8044615E000F0B2F8044611E090
:1048F00000F08EF804460DE000F044F8044609E0AC
:1049000000F01CF9044605E000F028F9044601E037
:104910000F2400BF00BF2046CEE700009C2C0020E3
:104920000C480089401C0B4908810020488008730E
:1049300000BF0CE0084901EB0011097809B9012218
:1049400000E0002203490A310A54411C88B20228BF
:10495000F0DB70479C2C00207C2C002010B5084810
:1049600000F032F840B900200549891E08704880DF
:10497000486041F61D5010BD00F06AF8FBE70000EA
:104980009E2C002070B50D4845880D4800EB0510A1
:10499000808968B90A4800EB0510002301224168AC
:1049A0000848FFF705FE044604200449087002E0A9
:1049B00000F08CF80446204670BD00009C2C0020BE
:1049C0007C2C00203823002010B501460022002056
:1049D00015E00D4B1B5C83B100240B4B1C540B4B9F
:1049E00003EB00139B8943B9084B03EB00139B7B3C
:1049F000012B02D10880012203E0431C98B2022857
:104A0000E7DB00BF104610BDA62C00207C2C002048
:104A1000F8B50C4844680C4800680B49898800EBDD
:104A200081056088C01C86B20320064908700020FA
:104A3000009008463346294642680448FFF778FE4E
:104A4000F8BD00009C2C00205C22002038230020B0
:104A500010B507494888091D06F0FCFF18B1FFF79B
:104A6000D7FF044602E0FFF78DFF0446204610BD45
:104A70009C2C002010B514480078082820D2DFE8CC
:104A800000F0041F1F0A1016171BFFF749FF012033
:104A90000D49087015E000F06DF802200A49087011
:104AA0000FE000F029F806200749087009E000BF70
:104AB00007200549087004E001200349087000E060
:104AC00000BF00BF10BD00009C2C002010B50520C9
:104AD0000649087002200649888008460023012202
:104AE00001680448FFF764FD10BD00009C2C002005
:104AF0005C220020382300200D4908680D494988B0
:104B00000D4A02EB01114968094A116009494988B7
:104B1000094A02EB0111486005498988054A528813
:104B2000054B03EB021211810221014A918070476B
:104B30005C2200209C2C00207C2C002010B506203C
:104B4000044908704988044A02EB0111486805F0DD
:104B500063F810BD9C2C00207C2C002010B5072091
:104B6000034908700020486005F066F810BD000099
:104B70009C2C0020054A50684288D21C91B2044AFD
:104B800092880A44024B9A80704700009C2C0020B7
:104B90005C2200203EB504462088502821D05228AF
:104BA00002D0542825D103E0A08803F0CDF920E0FD
:104BB00006208DF80000A08802F052FDADF802003A
:104BC000A088ADF80400BDF8020002F021F8A0882A
:104BD00000220C490978FCF7F9FF6846FFF7A4F8B2
:104BE00007E0A01DFEF758F910B1A08803F0FCF90A
:104BF00000BF00BFFCF718FB08F080FE07F09EFC2A
:104C00003EBD0000C32100203EB504466088ADF8DB
:104C10000200207820B101280FD002282BD116E005
:104C200000208DF800006846FFF77EF8608802F0EB
:104C300041FC054603F088F91DE001208DF80000D5
:104C4000A088ADF804006846FFF76EF813E02079FD
:104C500080B1608802F02EFC05464FF6FF70854259
:104C600007D00122054801782846FCF7AFFF07F07E
:104C700065FC00BF00BF00BF3EBD0000C321002097
:104C800010B50446207801280DD1608803F05CF946
:104C9000608802F0A1F828B16088012203490978F0
:104CA000FCF794FF00E000BF00BF10BDC32100204F
:104CB00010B502F019FEFCF757FF12490870FCF717
:104CC00053FF11490870FCF74FFF10490870FCF7BB
:104CD0004BFF0F4908700B48007818280BD00A4882
:104CE0000078182807D009480078182803D008460B
:104CF0000078182801D1032010BD01200549087053
:104D00000020F9E7C1210020C2210020C32100209A
:104D1000C4210020C021002010B586B001F090FF12
:104D200001A8FCF793FE002412E002A931F8140058
:104D300002F096FC4FF6FF71884207D102A931F8C4
:104D40001400012206490978FCF740FF601C84B278
:104D50000198A042E9D807F0F1FB06B010BD0000B1
:104D6000C321002010B504462078072803D16088AD
:104D700003F03AF900E000BF00BF10BD2DE9F05F7D
:104D800004460D4616461F46DDE90D9BDDE90AA8DF
:104D900004F1200001F006FEB4F92400A8420ADD67
:104DA000A08C401B381A07B2A08C401B40440FFA5D
