:020000040001F9
:10F000005880002015F401001DF401001FF40100D8
:10F0100021F4010023F4010025F4010000000000A8
:10F0200000000000000000000000000027F40100C4
:10F0300029F40100000000002BF401002DF4010070
:10F040007DF701002FF40100ADFA010001F8010085
:10F050002FF401002FF4010025F501002FF4010029
:10F060002FF401002FF401002FF401002FF4010010
:10F070002FF401002FF401002FF401002FF4010000
:10F080002FF40100CDF701002FF401002FF401004F
:10F0900019F801002FF4010021F801002FF40100FC
:10F0A0002FF401002FF401002FF401002FF40100D0
:10F0B0002FF401002FF40100000000000000000008
:10F0C0002FF401002FF401002FF401002FF40100B0
:10F0D0002FF401002FF401002FF4010000000000C4
:10F0E0000000000000000000000000000000000020
:10F0F0000000000000000000000000000000000010
:10F1000000000000000000000000000000000000FF
:10F1100000000000000000000000000000000000EF
:10F40000DFF80CD000F050F800480047C54C02006F
:10F41000588000200648804706480047FEE7FEE780
:10F42000FEE7FEE7FEE7FEE7FEE7FEE7FEE7FEE7B4
:10F4300061F8010001F4010040EA01039B0703D0D9
:10F4400009E008C9121F08C0042AFAD203E011F823
:10F45000013B00F8013B521EF9D27047D2B201E0E5
:10F4600000F8012B491EFBD270470022F6E710B5C9
:10F4700013460A4604461946FFF7F0FF204610BD22
:10F48000421C10F8011B0029FBD1801A704730B5CF
:10F4900004460020034600E05B1C934203D2E05C7C
:10F4A000CD5C401BF8D030BD064C074D06E0E0684F
:10F4B00040F0010394E8070098471034AC42F6D3BB
:10F4C000FFF7A2FF40AC020060AC020070B58C18E0
:10F4D00010F8015B15F0070301D110F8013B2A1168
:10F4E00006D110F8012B03E010F8016B01F8016B55
:10F4F0005B1EF9D12B0705D40023521E0DD401F851
:10F50000013BFAE710F8013BCB1A921C03E013F819
:10F51000015B01F8015B521EF9D5A142D8D300204E
:10F5200070BD00002DE9F04F87B00027BA464FF4B8
:10F53000807006900125002412E0069806F0CAF9B2
:10F5400040B100BF61480068284018B1069806F035
:10F55000B3F92F436D000698001D80B20690641C1D
:10F56000082CEAD34FF4BE7006F0B4F948B14FF45A
:10F57000BE7006F0A1F947F0004700BF544800688C
:10F580008246F8B200B3012500241BE005EA07001B
:10F59000B0B100BF4F4850F82400C0F304208046AB
:10F5A00000BF4C4850F82400C0F30140814620467B
:10F5B00002F068FC064616B149464046B04700BF17
:10F5C0006D00641C082CE1D307F00040002879D0BE
:10F5D0004FF0000B00200590401E049000BF4FF03C
:10F5E000000B002457E03C48005D0390039820F096
:10F5F000C00639480057401C00284BD00120B040BD
:10F6000004990840002845D003984FEA90193046E5
:10F6100002F080FC804602F035FC0290029810B99E
:10F62000B9F1030F35D1012000FA06F5B9F1030F46
:10F6300002D105982843059000BF284850F82600BD
:10F64000C0F3014800BF05EA0A0010B1B8F1020F8B
:10F6500005D005EA0A00D8B9B8F1030F18D1B9F1FD
:10F66000030F0FD1B8F1020F01D1032000E00220F7
:10F6700001903046019906F0E7F80BF1010000F027
:10F68000FF0B00BF029818B149463046029A9047D6
:10F6900000BF00BF641C042CA5D3BBF1000F0DD02C
:10F6A00000BF0B4909680846504503D14FF0000BD5
:10F6B00003E007E082460599049100BFBBF1000F0B
:10F6C0008DD100BF07B0BDE8F08F0000046300409B
:10F6D0001005005010650040382E00200007005033
:10F6E00000F01F0201219140024A430942F8231011
:10F6F0007047000080E200E000F01F02012191400D
:10F70000024A430942F823107047000080E100E0FC
:10F7100000F01F02012191404209920002F1E02213
:10F72000C2F80011704700F01F0201219140420908
:10F73000920002F1E022C2F80011704700F01F02AF
:10F7400001219140024A430942F82310704700000A
:10F7500000E200E010B5002807DA4A07140E054A57
:10F7600000F00F031B1FD45403E04A07130E024A94
:10F77000135410BD18ED00E000E400E010B54FF4A4
:10F78000807005F0D5FC60B14FF4807005F0D9FCB5
:10F79000012005F0DFFC01200B494870002002F039
:10F7A00029FD4FF4827005F0C3FC58B14FF482700C
:10F7B00005F0C7FC022005F0CDFC0120024988704D
:10F7C00002F018FD10BD0000D42D002010B500205F
:10F7D0000949086000210948C0F84411C0F84811DF
:10F7E000C0F84C1100200549C1F8000102493C391C
:10F7F000086009F0FDFF10BD4011014000100140FC
:10F8000010B5034C2146034804F01AFD10BD00005A
:10F81000602E00200030004010B509F0FFFE10BD42
:10F8200070B50A48006868B1084800688047044617
:10F8300000BF254625B100BF284600F0DBFB00BF16
:10F8400000BF01E004F04AFC70BD0000442200202B
:10F8500001480249086070470090D00364260020E8
:10F8600010B502F06FFF10B182488349486702F07B
:10F8700081FF28B181480068C0F3423080490860A8
:10F8800002F0A2FF28B17F48006820F080707D4917
:10F89000086002F0B1FF48B100207B4908604FF0DA
:10F8A0008041C1F810017649091F086002F0CEFFBF
:10F8B00018B1032072496431086002F0DFFF68B1BB
:10F8C00005207249086001207049783108600020E5
:10F8D0006E49083108603F20091F086002F0E6FF0A
:10F8E000002855D06A4800686A4908606848001DC9
:10F8F0000068091D0860664808300068091D086036
:10F9000063480C300068091D0860614810300068C9
:10F91000091D08605E4814300068091D08605C48D5
:10F92000183000685B492031086059481C30006875
:10F93000091D0860564820300068091D08605448B9
:10F9400024300068091D0860514828300068091DEE
:10F9500008604F482C300068091D08604C48303062
:10F9600000684C4940310860494834300068091D3E
:10F970000860474838300068091D086044483C303A
:10F980000068091D0860424840300068091D086091
:10F9900002F0AEFE30B139481430006800F04F007C
:10F9A0003D49086037487438006840F470003549B4
:10F9B0007439086000BF00BF00BFBFF34F8F00BFA6
:10F9C00000BF00BF00BF00BF00BFBFF36F8F00BF0D
:10F9D00000BF00BF3148006800F0004030B92F4838
:10F9E000001D006800F00040002840D001202C4994
:10F9F000086000BF2B4800680028FBD0152027496D
:10FA0000086000BF274800680028FBD01521234864
:10FA1000001D016000BF234800680028FBD00020C3
:10FA20001F49086000BF1F4800680028FBD000BFC6
:10FA300000BF00BF00BF00BFBFF34F8F00BF00BFBC
:10FA400000BF1048F038006800F4E0601649084331
:10FA5000001D0C49F039086000BF00BF00BFBFF3B4
:10FA60004F8F00BF00BF00BF00BF00BFFDE7FFF723
:10FA7000EFFE10BD0DF0ADBA00C00740440200100B
:10FA80003C050040FCED00E00C0100401056004039
:10FA90000404001020C50040E40E004000120010D5
:10FAA00004E5014000E401400000FA0510B50648F5
:10FAB000007F20B1044905480AF017F803E0024925
:10FAC000024809F071FF10BD402E002000200040C8
:10FAD00002E008C8121F08C1002AFAD17047704717
:10FAE000002001E001C1121F002AFBD17047000075
:10FAF0000146202908DA012088400A4A104008B14E
:10FB0000012070470020FCE7402909DAA1F120001C
:10FB1000012202FA00F008B10120F2E70020F0E72C
:10FB20000120EEE7FC06FFBC00BFEFF310810846A2
:10FB300072B6704770B505460C4605B10CB9002089
:10FB400070BD287840082178B0EB510F01D000201B
:10FB5000F6E70622611C681CFFF799FC08B9012032
:10FB6000EEE70020ECE70246002104E0505C08B11B
:10FB700001207047491C0629F8D30020F9E700004E
:10FB800010B504466CB108480068A04209D8064880
:10FB90004068A04205D3204604F082FB08B1012052
:10FBA00010BD0020FCE70000682600202DE9FC4184
:10FBB000044688461646002537880020308094F891
:10FBC0002D0058B13A463146404600F0FFFF054649
:10FBD00000BF15B12846BDE8FC8100BFA07850B138
:10FBE0003A463146404600F0E3FA054600BF0DB103
:10FBF0002846F0E700BFE07860B1E17848B23B46C4
:10FC00003246414603F01CFA054600BF0DB12846B6
:10FC1000E1E700BF606868B1616891F900003B46A8
:10FC20003246414609F0A5FE054600BF0DB1284603
:10FC3000D1E700BF208900280EDD434606220221BD
:10FC400004F10800CDE900670AF092F8054600BF0C
:10FC50000DB12846BFE700BF208A00280EDD4346CD
:10FC60000722032104F11000CDE900670AF080F8B3
:10FC7000054600BF0DB12846ADE700BF208B002828
:10FC80000EDD43461522142104F11800CDE900676A
:10FC90000AF06EF8054600BF0DB128469BE700BF8D
:10FCA000206A58B13B4632464146206A02F02FFB9B
:10FCB000054600BF0DB128468DE700BF606A58B108
:10FCC0003B4632464146606A05F072F8054600BF81
:10FCD0000DB128467FE700BF94F82C0000280BDD0B
:10FCE0003B4632464146204608F01CFF054600BF11
:10FCF0000DB128466FE700BF207858B13B46324629
:10FD00004146204605F0FAF8054600BF0DB12846E9
:10FD100061E700BF28465EE770B504461448FFF768
:10FD200022FF0546012C06D0022C0BD0032C10D04C
:10FD3000042C1AD113E00F48407810B10DB1012006
:10FD400070BD00BF0B48807810B10DB10220F7E7FD
:10FD500000BF0848C07808B10320F1E700BF05489C
:10FD6000007908B10420EBE700BF0020E8E70000BD
:10FD70005D210020882800200146481C052290FBB8
:10FD8000F2F302FB1300C0B270470146C87800F0DE
:10FD9000040008B9072070470020FCE710B50122D5
:10FDA0000221002001F076FC044600BF1CB1072CA4
:10FDB00001D0204610BD00BF07220221012001F022
:10FDC00069FC044600BF1CB1072C01D02046F1E7B6
:10FDD00000BF0A220021084601F05CFC044600BF77
:10FDE0001CB1072C01D02046E4E700BF0020E1E76A
:10FDF00030B597B0382109A8FFF737FB02208DF8FE
:10FE0000240001208DF8260006208DF8270001200F
:10FE1000ADF8340010490E91202101A8FFF725FB11
:10FE200001208DF807004FF496700590B4200690DD
:10FE300000200A4B01AA0146009009A800F016FB19
:10FE4000044600BF254625B100BF284600F0D2F881
:10FE500000BF00BF17B030BD2C2100209159020017
:10FE600070B58CB004460D461646002005E0C0F182
:10FE70000F01615C0DF80010401C1028F7D30D2114
:10FE800004A8FFF7F2FA002005E02A5CC0F10F0396
:10FE900004A9CA54401C0328F7D3684643DF002056
:10FEA00005E0C0F10F0208A9895C3154401C032809
:10FEB000F7D30CB070BD0000014600BF064A1068C1
:10FEC0004FF400228243044B1B1D1A6000F40022F1
:10FED0001B1D1A6000BF70470405005010B50024B8
:10FEE00007E00749096811F83400012105F0F6F927
:10FEF000641C044800788442F3D3002010BD000045
:10FF0000F0210020F42100202DE9F84306460C469C
:10FF10001746052F02D20720BDE8F88305F0E2FA64
:10FF200038B905F0B1FA054600BF0DB12846F3E730
:10FF300000BF164806601648047016480760002087
:10FF4000154908601549086015E006EBC408144817
:10FF50000068009098F802008DF8010098F8000001
:10FF6000104A694605F016FA054600BF0DB128464D
:10FF7000D2E700BF00BF201EA4F10101CCB2E4D142
:10FF8000094A0021094800F043F8C5E7F0210020A4
:10FF9000F4210020F8210020FC2100200022002074
:10FFA00004AC0200653902006125020000AC0200C9
:10FFB00000BF00BF00BF00BF00BFBFF34F8F00BF37
:10FFC00000BF00BF0948006800F4E060084908432A
:10FFD000001D0649086000BF00BF00BFBFF34F8F80
:10FFE00000BF00BF00BF00BF00BFFDE70CED00E099
:10FFF0000000FA053EB504460020009001900290F2
:020000040002F8
:1000000002946A46002144F20100FFF7D1FF3EBD91
:1000100010B503460C4600BF0B48406808B90820DD
:1000200010BD00BF0AB90720FAE70BB90720F7E7B0
:100030001868007C08B10820F2E7196800200874ED
:100040004C744A6100BFEBE7042200202DE9F04127
:1000500007460D4614461E46204600F0030109B926
:10006000012100E0002111B90720BDE8F0810CB9A1
:100070000720FAE708F090F91148066000201149BE
:100080000870487008468570446000200E4908607A
:100090000E4908700E4908701420FFF721FB062155
:1000A0001420FFF757FB1420FFF732FB384608F007
:1000B00049F908F041F9074908600020D5E7000038
:1000C00020220020042200200C2200201C220020DC
:1000D0001D220020102200202DE9F04104460E468A
:1000E0001746254600BF1048406810B90820BDE8F3
:1000F000F08100BF0CB90820F9E7052E01D20720D6
:10010000F5E7686908B90820F1E7687C012801D1A2
:10011000304600E0002080463B46424631462846B5
:1001200009F016FBE3E700000422002070B5044646
:10013000254600BF0848406808B9082070BD00BFC8
:100140000CB1686908B90820F8E70020287402217A
:10015000284609F02CFBF1E70422002010B50446E4
:10016000204608F0B9F910BD70B5044625460E4882
:100170008068B0B1ADB9FFF7D7FC06460A48006801
:100180000A490860084840684FF0E021C1F80401BE
:100190000020054988601EB900BF62B600BF00BFDD
:1001A00000BF00BF70BD0000A02E002000E100E0F5
:1001B000F8B505460C4617462088001DB84201D9FF
:1001C0000C20F8BD684679DF064600BF0EB1304608
:1001D000F7E700BF0320218868542088401C208056
:1001E0001920218868542088401C208020884119CB
:1001F000BDF8000009F005FD21880844208000209A
:10020000DFE7704730B58BB01348007800F0ACFCE6
:100210000546284608F094F9D8B101A800F004FC7E
:10022000142201A906A8FFF707F900240DE007A989
:1002300031F814000849097800F0A4FC20B107A99E
:1002400031F8140004F0D6FA641C0698A042EED8E7
:1002500000BF0BB030BD00009621002010B5044651
:10026000637903F003022179208804F093F910BD2B
:1002700010B50446207918B9204600F007F803E0CD
:100280002046FFF7EBFF00BF00BF10BD2DE9F04196
:1002900088B004460025208800F038FC07462088F6
:1002A00003F05CFE0646A0680790607A06902088FE
:1002B00000222349097800F077FC17B908B0BDE89F
:1002C000F0816079C0F3800090B10721304606F0DC
:1002D000E9FA0546BDB108208DF800002088ADF888
:1002E0000200ADF804600295684602F0ADFB0AE03A
:1002F00020881449097800F045FC20B1304603F00D
:1003000017FE804600BF03208DF80C002088ADF852
:100310000E006079C0F380008DF81000A079C0F362
:1003200080018DF811109DF81C108DF812109DF8A9
:1003300018108DF8131003A802F086FB00BFBDE76C
:10034000D6210020D821002030B5024600201578A3
:100350000446401C0D5530BD70B504460D4622883C
:1003600028466168FFF768F8207870BD10B503462D
:1003700008784C7840EA04201080022010BD024624
:10038000107808701088000A4870022070470246F2
:10039000107808701088000A48700220704710B565
:1003A000034608784C7840EA04208C7840EA044000
:1003B000CC7840EA04601060042010BD024610783A
:1003C00008701088000A48701068000C8870106867
:1003D000000EC870042070472DE9F04192B08046AD
:1003E0000D461F2011901090B8F1000F17D0404615
:1003F000FFF7CBFC044600BF1CB1204612B0BDE89D
:10040000F08100BF11AA08A94046FFF7CFFB0446C0
:1004100000BF0CB12046F1E700BF08AE02E00026A5
:1004200000201190ADB1284609F051F8044600BFF4
:100430000CB12046E2E700BF10AA69462846FFF744
:10044000B5FB044600BF0CB12046D7E700BF6F469E
:1004500002E0002700201090BDF84000C3B2BDF8B4
:100460004400C1B23A46304672DFC7E72DE9F04793
:1004700004460F4615461E46DDF8208004B115B926
:100480000E20BDE8F0870120484908700020484947
:100490000870202229464748FEF7CEFF46480660EE
:1004A0004648C0F800804FF6FF704549088045482F
:1004B000002101608180817138214348FEF7D5FF1A
:1004C000207841490870A0788870E078C87060781A
:1004D0004870D4E90402C1E904020846D4E90212D2
:1004E000C0E90212D4E90612C0E90612606AD8B166
:1004F00036483549486236498160606A0088324929
:10050000496A0880606A80882F49496A888000208B
:1005100005E0616A8968095C2D4A1154401C2A492A
:10052000496A89888142F4D8A06A20B329492A48B7
:1005300081602549886227492348806A8160A06AD2
:1005400080882149896A8880A06A00881E49896A52
:100550000880002005E0A16A8968095C1D4A1154E1
:10056000401C1949896A89888142F4D894F82C0082
:10057000154981F82C00206A58B1184812490862C0
:10058000206A4088096A4880206A00880E49096A02
:100590000880606810B10C496068486039460A48B4
:1005A000FFF71AFF814648466BE7000058210020FC
:1005B0005B210020882800206C2100207021002071
:1005C000682100205C210020A8280020E0280020CD
:1005D000EC280020182900200C290020642100208C
:1005E00010B504462088102804D0112806D01B28F6
:1005F0000CD107E0204605F0A9FA08E0204605F0F6
:10060000E1FA04E0204605F061FC00E000BF00BF15
:1006100010BD000070B50546022D02D0032D15D186
:1006200000E000BF0B48007878B10020094908704D
:100630000948007800F040F8044634B107480068E3
:1006400018B1204605490968884700E000BF00BF8F
:1006500070BD0000592100205B2100207021002086
:1006600010B574DF01200F49087000200E49087092
:1006700006200E49C87000210C48FFF7ADFE044665
:100680000CB1204610BD0A48007800F015F8044669
:1006900034B10848006818B12046064909688847FF
:1006A0000020EFE77421002076210020A8280020F8
:1006B0005B210020702100207FB505464D48007861
:1006C00010B9082004B070BD4B48057002F022FD3F
:1006D00020B10120494908700020F3E74848002173
:1006E0000160818081714748407818B142480078A4
:1006F00001280DD04348807818B13F480078012880
:1007000006D04048807888B13B48007802280DD157
:100710003D48006838B101203C49087008203A493A
:100720000968884702E00020384908702846FFF72A
:10073000F3FA3149087034480068C0B108460078BF
:10074000032803D008460078042810D12D480078EB
:1007500068B12F48007850B900202E490870012058
:100760002D490870072028490968884702E00020C1
:1007700029490870002000900190029003908DF8A4
:1007800000008DF808001C48007805281CD2DFE81E
:1007900000F01703080D1200684608F037FA044607
:1007A00013E0684608F042FA04460EE0684608F096
:1007B00053FA044609E0684608F07EFA044604E06D
:1007C00000201649087000E000BF00BF0A4800780A
:1007D00028B1684673DF04460CB1204672E70A4828
:1007E000006820B10D480078074909688847002053
:1007F00068E70000582100205B21002059210020DB
:100800005C210020882800206C210020632100202A
:100810007421002076210020752100205A2100201B
:1008200030B587B004460D46002005900690694615
:100830002846FFF789FDADF814000020ADF816003A
:10084000CDF818D02189208B05AAA4DF07B030BDD0
:1008500070B594B004460D46286820604FF6FF70CE
:10086000208300BF01208DF84E0041F60F00ADF847
:100870004C0000BF221D13A90120A0DF064616B1BF
:10088000304614B070BDD5F806001090D5F80A00B7
:100890001190E889ADF848002879A071202103A8BB
:1008A000FEF7E3FD42F61920ADF80C001420ADF878
:1008B00010000BA910A8FFF747FDADF812000BA818
:1008C0000590A1799DF8190061F304108DF81900C5
:1008D0009DF8190020F00200801C8DF819000120FD
:1008E0008DF81D008DF81F008DF818000020019074
:1008F00002900A208DF804000120ADF80A00FE20C5
:100900008DF8050001208DF8080042F20270ADF864
:10091000060001A80A90A08804F1080203A901F0CA
:10092000FFFA06460EB13046ABE70020A9E770B5E6
:1009300005460C462088102806D0112809D05028DA
:100940000CD0512814D10EE02146284605F0F4F8C9
:100950000FE02146284605F027F90AE0A11D2846A8
:1009600005F012FB05E0211D284605F080FA00E0A5
:1009700000BF00BF70BD000070B505461C222946AF
:100980001248FEF759FD002011490870286850B13F
:10099000104829680A680260496841607ADF0446A5
:1009A0003CB1204670BD0B487BDF04460CB12046AD
:1009B000F8E74FF6FF7008490880002007490870E3
:1009C000074A00210748FFF723FBEBE738290020FF
:1009D0008C2100207821002082210020802100200D
:1009E000699C02005CAB020010B504462088102808
:1009F00006D0112808D012280ED0502810D107E0B8
:100A0000204605F07DF80CE0204605F0ADF808E042
:100A1000204605F093FA04E0204605F065F800E072
:100A200000BF00BF10BD000010B504460348027DA2
:100A3000011D204607F0FDFD10BD000074290020B7
:100A400010B504460348C17D2246001D07F0DAFDBB
:100A500010BD00007429002010B504460348017E33
:100A60002246001D07F0CEFD10BD000074290020B5
:100A700070B504462088102804D011281DD01A28EB
:100A800040D11EE007F0EEFBA08807F065FA20B920
:100A900000BF0420FFF7AEFA0EE0E07B022801D190
:100AA000012000E000200546A2882B461649A1F14E
:100AB000120007F0DFFD00BF24E0A08807F0F4FB80
:100AC00020E0207A0121B1EB101F01DA012000E0C3
:100AD00000200346A2880C49491CA1F1130007F02D
:100AE000C9FD207A0221B1EB101F01DA012000E0DC
:100AF00000200346A2880449891CA1F1140007F0D4
:100B0000B9FD00BF00BF70BD8A29002070B5044642
:100B100000250B48017D2246001D07F073FD60B1E2
:100B20000748817D2246001D07F06CFD06460EB188
:100B3000022000E00120054600BF284670BD0000ED
:100B40007429002010B500240AE0204609F0DEF8E0
:100B500020B9204609F0D0F8204610BD601CC4B270
:100B6000182CF2DB1820F8E710B50446204609F0EF
:100B7000CDF810B10248005D10BD0020FCE7000078
:100B80008D29002070B505460C46204609F0BEF8B8
:100B900030B10448015D2A46153807F033FD70BDB9
:100BA0000020FCE78D29002070B505460C4616464E
:100BB000204609F0ABF830B10348011933462A4604
:100BC000153807F057FD70BD8D2900202DE9FC4137
:100BD00005460C46174620880930B84202D90C2039
:100BE000BDE8FC8168466DDF064600BF0EB13046A9
:100BF000F6E700BF0820218868542088401C208028
:100C00001B20218868542088401C2080208828448C
:100C1000DDF801100160BDF8051081802088801D7D
:100C200020809DF80000400818B9002021886854F1
:100C300002E00120218868542088401C2080002088
:100C4000CEE770B5ADF50C7D04460E4630682060E9
:100C50004FF6FF70A4F84E0000BF01208DF82A0265
:100C600041F60A00ADF8280200BF221D8AA9012022
:100C7000A0DF05461DB128460DF50C7D70BDD6E9F7
:100C800001018991889020217BA8FEF7EEFB42F6B6
:100C90002920ADF8EC011420ADF8F00183A988A853
:100CA00004F0C1F8ADF8F20183A87D909DF8F90138
:100CB00020F00200801C8DF8F90101208DF8FD0163
:100CC0008DF8F801A088A21D7BA901F029F905463D
:100CD0000DB12846D0E7D6E903017A917990202119
:100CE0006CA8FEF7C2FB42F62420ADF8B001142038
:100CF000ADF8B40174A979A804F0F4F8ADF8B60120
:100D000074A86E909DF8BD0120F00200801C8DF843
:100D1000BD0101208DF8C1018DF8BC01A08804F14E
:100D20000E026CA901F0FCF805460DB12846A3E7B8
:100D3000D6E905016B916A9020215DA8FEF795FB2D
:100D400042F62520ADF874011420ADF8780165A9AC
:100D50006AA807F020FEADF87A0165A85F909DF8BB
:100D6000810120F00200801C8DF8810101208DF8A6
:100D700085018DF88001A08804F116025DA901F0BB
:100D8000CFF805460DB1284676E7D6E907015C9114
:100D90005B9020214EA8FEF768FB42F62720ADF8B5
:100DA00038011420ADF83C0156A95BA802F02EFFD3
:100DB000ADF83E0156A850909DF8450120F0020084
:100DC000801C8DF8450101208DF849018DF8440102
:100DD000A08804F11E024EA901F0A2F805460DB14B
:100DE000284649E7D6E909014D914C9020213FA8BA
:100DF000FEF73BFB42F62620ADF8FC001420ADF8D0
:100E0000000147A94CA802F0E1F8ADF8020147A89B
:100E100041909DF8090120F00200801C8DF8090125
:100E200001208DF80D018DF80801A08804F126023B
:100E30003FA901F075F805460DB128461CE7D6E933
:100E40000B01CDE93D01202130A8FEF70EFB42F653
:100E50002820ADF8C0001420ADF8C40038A93DA882
:100E600008F0DAFAADF8C60038A832909DF8CD0047
:100E700020F00200801C8DF8CD0001208DF8D100FB
:100E80008DF8CC00A08804F12E0230A901F048F8BA
:100E900005460DB12846EFE606F138000FC8CDE94A
:100EA0002E23CDE92C0120211FA8FEF7DEFA42F601
:100EB0002320ADF87C001420ADF8800027A92CA8D1
:100EC00008F054FBADF8820027A821909DF8890016
:100ED00020F00200801C8DF8890001208DF88D0023
:100EE0008DF88800A08804F136021FA901F018F8D7
:100EF00005460DB12846BFE6D6E91201CDE91D0130
:100F0000202110A8FEF7B1FA42F62A20ADF84000E1
:100F10001420ADF8440018A91DA802F08FFEADF80A
:100F2000460018A812909DF84D0020F00200801C89
:100F30008DF84D0001208DF851008DF84C00A088EF
:100F400004F13E0210A900F0EBFF05460DB1284662
:100F500092E6306D0E90706D0F90202101A8FEF783
:100F600084FA42F65020ADF804001420ADF80800D1
:100F700009A90EA806F04CFEADF80A0009A80390D6
:100F80009DF8110020F00200801C8DF81100012056
:100F90008DF815008DF81000A08804F1460201A913
:100FA00000F0BEFF05460DB1284665E6002063E669
:100FB00070B505460C462088102806D0112809D0A7
:100FC00050280CD0512814D10EE02146284604F0B8
:100FD000B6FD0FE02146284604F0EAFD0AE0A11D17
:100FE000284604F0ECFF05E0211D284604F046FFEA
:100FF00000E000BF00BF70BD10B504462046FFF7FB
:1010000037FD204606F0F6FA2046FFF7EDFC2046B5
:1010100000F036FA2046FFF7E3FA204604F0DEFC43
:10102000204600F0FBF92146014804F048F810BDC5
:101030007826002070B5B4B004460E4630682060B3
:101040004FF6FF70E083674991E80D00C9682FAD46
:101050000DC532912EA92FA863DF054615B128468C
:1010600034B070BD9DF8B8008DF8CE0043F6FC603A
:10107000ADF8CC00221D33A90120A0DF05460DB13B
:101080002846EDE7B0882D90202120A8FEF7EDF945
:1010900049F2CC10ADF880009DF8CE008DF88200AA
:1010A0001420ADF8840028A92DA801F0C1FAADF8EC
:1010B000860028A822909DF88D0020F00200801C58
:1010C0008DF88D0001208DF891009DF88D0020F0A5
:1010D000080008308DF88D0001208DF892008DF801
:1010E0008C00A088A21D20A900F01AFF05460DB1B2
:1010F0002846B5E706F108000FC8CDE91E23CDE963
:101100001C0120210FA8FEF7B0F94EF68C10ADF8A7
:101110003C009DF8CE008DF83E001420ADF8400054
:1011200017A91CA803F0BAFEADF8420017A8119049
:101130009DF8490020F00200801C8DF84900012034
:101140008DF84D009DF8490020F0080008308DF81A
:10115000490001208DF84E008DF84800A08804F168
:101160000E020FA900F0DCFE05460DB1284677E718
:10117000B0690E90202101A8FEF777F949F21E1000
:10118000ADF804009DF8CE008DF806001420ADF8EF
:10119000080009A90EA800F020FEADF80A0009A871
:1011A00003909DF8110020F0100010308DF8110010
:1011B0009DF8110020F00200801C8DF81100012024
:1011C0008DF815008DF817008DF81000A08804F137
:1011D000160201A900F0A4FE05460DB128463FE71E
:1011E00000203DE7F0AB020070B505460C462088B4
:1011F000102806D0112809D050280CD0512814D11D
:101200000EE02146284604F09EFC0FE021462846C9
:1012100004F0D3FC0AE0A11D284604F0D1FE05E04D
:10122000211D284604F031FE00E000BF00BF70BD64
:1012300070B504460D462846FEF722F92080656009
:1012400070BD70B50446204608F0D5FC054605F093
:10125000010070BD70B588B027480068079000BFD6
:1012600000235022254907A808F076F8054600BF5C
:101270002E4626B100BF3046FEF7BCFE00BF00BFC1
:1012800000BF6A460121002008F046F8044600BF6E
:10129000254625B100BF2846FEF7ACFE00BF00BFC3
:1012A0001720ADF81000684608F022F8044600BF89
:1012B000254625B100BF2846FEF79CFE00BF00BFB3
:1012C0000F4808F009F8044600BF254625B100BFC5
:1012D0002846FEF78FFE00BF00BF0A4808F090F8CE
:1012E000044600BF254625B100BF2846FEF782FE12
:1012F00000BF00BF08B070BD1CAB0200402700203B
:10130000F90F02005B95020010B5A2B058210CA89D
:10131000FEF7ABF836480C9036A10DA8FFF788FF12
:1013200034A10FA8FFF784FF32A111A8FFF780FFB7
:1013300030A113A8FFF77CFF2EA115A8FFF778FFB7
:101340002CA117A8FFF774FF00201A901B90002112
:101350001C9101218DF87C102A481E9001208DF8E7
:1013600080000CA80021ADF88210ADF88410ADF813
:1013700086100CA92448FFF764FC044614B12046EB
:1013800022B010BD0020089009900A900B901F48D1
:10139000089001208DF8240000208DF8260008A96F
:1013A0001B48FFF755FA04460CB12046E8E71C211C
:1013B00001A8FEF75AF8174801900020ADF8080080
:1013C0008DF80C0001A80021ADF80E10ADF810103A
:1013D0000591069100208DF81C0001A90E48FFF729
:1013E00029FE04460CB12046CAE70020C8E70000E9
:1013F000615B0200494E495449414C2056414C55CD
:10140000450000003021002090270020C359020031
:10141000E0270020C55C0200FC27002010B5044630
:1014200021460648FFF7C4FD21460548FFF77FFA2D
:1014300021460448FFF7D8FE10BD00009027002089
:10144000E0270020FC27002070B505460C4600264A
:101450000948056044B1204608F040F8064600BF40
:101460000EB1304670BD00BF0448006810B9FEF7E9
:1014700095FC06463046F5E7502100205421002017
:1014800070B505462888102802D011282CD115E007
:101490001748006860B901F013F8044600BF34B182
:1014A0001448006818B1204612490968884700BFEF
:1014B0000F480068401C0E49086016E00C480068A0
:1014C000401E0B4908600846006860B9FEF766FCDC
:1014D000044600BF34B10748006818B120460549EA
:1014E0000968884700BF00E000BF00BF70BD000072
:1014F000542100205021002010B5032000F03EFCB4
:10150000044600BF1CB1062C01D0204610BD00BF10
:101510000020FBE72DE9F04105460F464FF000089B
:10152000002400E0641C042C04D22A4850F8240053
:10153000A842F7D1042C41D227B3012F02D0022FA9
:101540003BD133E004EB4400234911F8008004EB65
:1015500044000844407868B12048006800EB8000EF
:1015600041001F4A1F480068FEF7B6FD06460EB947
:101570001B48057004EB44001749084480781A4959
:1015800008551AE017480068FEF7D0FD1648005DC0
:1015900004EB4401104A11448978884205D104EBD8
:1015A00044001146084490F8028006E004EB440031
:1015B0000949084490F8018000BF00BFB8F1000F4E
:1015C00006D00A48006818B14046084909688847AB
:1015D000BDE8F0812CAB02005C28002038210020FF
:1015E0004821002028AB020049210020442100208E
:1015F00010B50246042A0ED2094B1B68D843094B8A
:1016000013F822400123A34003400BB1012300E063
:1016100000230B7001E000200870002010BD0000C6
:10162000100500502CAB020070B50546042D06D005
:10163000072D15D00A2D28D107F0CDFB26E0132168
:101640001348008876DF0446082C08D000BF2646E1
:1016500026B100BF3046FEF7CDFC00BF00BF15E04D
:101660000B4800884FF6FF7188420DD1FEF7F8FF56
:101670000446082C08D000BF264626B100BF3046DD
:10168000FEF7B8FC00BF00BF00E000BF00BF70BDA8
:101690002A21002030B503460020042B23D2012A42
:1016A00007D1012903D103F10D04E4B200E00024C5
:1016B000224679B1012902D0022911D104E003EBBD
:1016C00043040A4D2A550DE003EB4304074D2C4417
:1016D000627007E003EB4304044D2C44A27001E068
:1016E000072000BF00E0072030BD00005C2800207C
:1016F00070B5044600250548007800F0010018B1D7
:10170000204600F06DF80546284670BD3C210020BB
:101710002DE9F04105460E46904600242548066016
:10172000254805602548C0F8008005F00200F8B1A2
:10173000002706E0012211463846FFF7ABFF0446BA
:101740007F1C042F01D2002CF4D02CB97208042184
:101750001B48FEF7D9FB044614B9FEF7BFFB04464D
:101760002CB9184A00211848FEF752FC044600BF65
:1017700005F0010068B100BF4FF4F0101349086094
:101780000020091D086000BF4FF4F0100F49103110
:1017900008602CB90E4A00210E48FEF739FC0446B9
:1017A0002CB90D4A01210D48FEF732FC04462046B3
:1017B000BDE8F081382100203C2100204421002098
:1017C0003CAB0200CD1D020028AB02000805005012
:1017D000BD42020020AB0200B9FE010024AB0200B2
:1017E0002DE9F041044600260025182C7DD2DFE8C3
:1017F00004F00C1D1E68B4EEEDECEBEAE9E8E7E658
:10180000E5E4E3E2E1E0DFDEDDDC00BFFD480168A6
:101810004FF4F010884300F4F010FB4908600020FA
:10182000091D086000BFF948047098E200BF00BFBE
:10183000F44801684FF4E010884300F4F010F249D6
:1018400008600020091D086000BFEF48001F006805
:1018500080F4F01000F4003088B100BF4FF4003085
:10186000091F08600020091D086000BF022C02D17A
:101870004FF4E16001E04FF47A60054610E000BFEC
:101880004FF40030E049091D08600020091F08607E
:1018900000BF022C01D1C82001E04FF4C8700546FA
:1018A000DA4804706420B5FBF0F0D949096800FB00
:1018B00001F700223946D7480068FEF70DFC0646BE
:1018C0004DE200BFCF4801684FF4E010884300F4B8
:1018D000F010CD4908600020091D086000BFCA480B
:1018E000001F006880F4F01000E037E200F40030E0
:1018F00088B100BF4FF40030091F08600020091DA7
:10190000086000BF032C02D14FF4487001E04FF48F
:101910007A60054610E000BF4FF40030BA49091D57
:1019200008600020091F086000BF032C01D1C820F7
:1019300001E04FF4C8700546B44804706420B5FB5C
:10194000F0F0B349096800FB01F700223946B148BD
:101950000068FEF7C1FB064601E200BFA948016826
:101960004FF4E010884300F4F010A749086000200D
:10197000091D086000BFA448001F006880F4F01033
:1019800000F4003020B300BF4FF40030091F08609E
:101990000020091D086000BF042C02D14FF47A60BA
:1019A00001E04FF47A60054624E0CBE1C9E1B3E100
:1019B0009DE187E179E13FE13DE13BE139E137E15B
:1019C0002AE105E1EDE0D3E0BBE0A1E06CE022E03C
:1019D00000BF4FF400308C49091D08600020091F2A
:1019E000086000BF042C02D14FF4C87001E04FF42E
:1019F000C8700546854804706420B5FBF0F0844942
:101A0000096800FB01F70022394682480068FEF7AA
:101A100063FB0646A3E100BF7A4801684FF4E0107B
:101A2000884300F4F010784908600020091D086020
:101A300000BF7548001F006880F4F01000F400300B
:101A400080B100BF4FF40030091F08600020091D5D
:101A5000086000BF052C01D1C82001E04FF47A6076
:101A6000054610E000BF4FF400306749091D0860CB
:101A70000020091F086000BF052C01D1C82001E02B
:101A80004FF4C8700546614804706420B5FBF0F05F
:101A90005F49096800FB01F7002239465D4800688C
:101AA000FEF71AFB06465AE100BF564801684FF49C
:101AB000E010884300F4F010534908600020091D2D
:101AC000086000BF5048001F006880F4F01000F468
:101AD000003040B100BF4FF40030091F0860002003
:101AE000091D086009E000BF4FF400304649091D98
:101AF00008600020091F086000BF44480470444883
:101B00000022016843480068FEF7E6FA064626E12F
:101B100000BF3C4801684FF4E010884300F4F01027
:101B2000394908600020091D086000BF00BF4FF45C
:101B3000003008600020091F086000BF33480470AF
:101B40000DE100BF3049091F08684FF4802181432F
:101B50002D4A116000F48021121D116000BF2C4835
:101B6000002201682B480068FEF7B6FA0646F6E048
:101B700000BF2549091F08684FF480218143224A8C
:101B8000116000F48021121D116000BF2048006820
:101B900000EB800100221F480068FEF79DFA064610
:101BA000DDE000BF1849091F08684FF48021814318
:101BB000154A116000F48021121D116000BF144805
:101BC0000022016813480068FEF786FA0646C6E060
:101BD00000BF0D49091F08684FF4802181430A4A5C
:101BE000116000F48021121D116000BF08480068D8
:101BF00000EB8001002207480068FEF76DFA0646F8
:101C0000ADE00000402100200805005034210020F4
:101C10003821002020AB020000BF4FF4F0105249E1
:101C200008600020091F086000BF5048047096E05B
:101C300000BF00BF00BF00BF4D480068FEF776FA46
:101C40000646C4F111050DB306BB4FF40020494907
:101C50000860012D0FD9C82068436421B0FBF1F062
:101C60004549096800FB01F70022394640480068F1
:101C7000FEF732FA064600BF3E48006800F4F01056
:101C8000394908600020091F08600DE000BF39488D
:101C9000006800F4F0103449091F08600020091D95
:101CA000086000BF3349086059E000BF4FF4F010EE
:101CB0002D49091F08600020091D086000BF2B483E
:101CC00004704CE000BF4FF4E0102749091F086082
:101CD0000020091D086000BF00BF4FF400300860FD
:101CE0000020091F086000BF2048047037E000BFD3
:101CF0004FF4D0101C49091F08600020091D08601E
:101D000000BF00BF4FF4802008600020091F08605A
:101D100000BF1648047022E000BF4FF4C010124903
:101D2000091F08600020091D086000BF00BF4FF4B4
:101D3000C02008600020091F086000BF0B48047025
:101D40000DE000BF00BF4FF4F0100749086000200D
:101D5000091F086000BF0548047000E000BF00BF15
:101D60003046BDE8F08100000C0500503421002011
:101D700024AB0200402100203821002030B502466B
:101D800000201AE00F4C54F82040A40004F1A044B5
:101D9000D4F800170124844014400CB1032400E05F
:101DA0000024234621F4403141EA0341064C054D0D
:101DB00055F8205044F82510401C0428E2D3002098
:101DC00030BD00002CAB02000007005010B50446E7
:101DD00020780221FFF79EFB10BD30B5024600209F
:101DE00015780446401C0D5530BD0000F8B5054679
:101DF000134A40F6CD410320FFF78AFC044600BF9A
:101E0000264626B100BF3046FEF7F4F800BF00BFFB
:101E100069460020FFF718FB044600BF264626B19E
:101E200000BF3046FEF7E6F800BF00BF9DF8000097
:101E3000022801D1012000E000202870F8BD000038
:101E40002916020001468879012809D1087901285C
:101E500006D1488842F60212904201D10120704713
:101E60000020FCE74FF0FF31054A42F82010082817
:101E700004DBFF23A0F108015032535470470000E7
:101E8000E82D00200146024850F82100704700006C
:101E9000E82D00202DE9F04F03460C464FF0FF39A6
:101EA0000AB1002000E0082084460AB1082000E0C2
:101EB0000C208046614624E0154850F82100401C63
:101EC000F0B91D460846274616464FFA80FBDFF854
:101ED00040A00AF1300A0AF805B0DFF834A04AF849
:101EE00020704EB94FFA85FBA0F1080ADFF820E018
:101EF0000EF1500E0EF80AB000BF4FFA81F902E061
:101F0000491C4145D8D300BF4846BDE8F08F0000CA
:101F1000E82D00200146014840567047182E002049
:101F200070B590B006460C461546A07818B9012049
:101F30008DF80E0002E0A0788DF80E002088ADF834
:101F40000C0000200290607C02A906F0E5FEA07C57
:101F50000DF1090106F0E0FEE07B08B1012000E090
:101F600000209DF80A1060F3C3018DF80A10207C50
:101F700008B1012000E000209DF80A1060F3041170
:101F80008DF80A10207B08B1012000E000209DF8A8
:101F90000A1060F300018DF80A10207D08B10220BC
:101FA00000E001209DF80A1060F342018DF80A104C
:101FB0001C2109A8FDF759FA607BC0F3001018B97D
:101FC000607BC0F34010F8B100200090E07C0DF180
:101FD000010106F0A1FE00BF9DF8000020F00F00F7
:101FE000401C8DF800009DF8000020F0F00010303B
:101FF0008DF8000000BF9DF8020020F00600801C54
:102000008DF80200CDF838D0607B8DF82400A07BDD
:102010008DF82500142104A8FDF727FA03A80490E1
:1020200002A80590A088ADF81C00A06820B1E08847
:10203000ADF81800A0680890A069002849D00020D9
:102040000190A0690088ADF82C00A0694088ADF827
:102050002E00A06940680A9001A80D90A169087B34
:1020600001A906F059FEA169487B0DF1050106F0B2
:1020700053FEA069807A08B1012000E000209DF89D
:10208000061060F3C3018DF80610A069C07A08B18C
:10209000012000E000209DF8061060F304118DF887
:1020A0000610A069007A08B1012000E000209DF828
:1020B000061060F300018DF80610A069807B08B15E
:1020C000022000E001209DF8061060F342018DF827
:1020D0000610E06908B1E0690C902B4604AA09A932
:1020E0003046A2DF10B070BD014639B104488842C5
:1020F00004D80448884201D9012070470020FCE739
:10210000682600207826002070B505460E4600247B
:1021100007E055F8340002F0C3F808B9002070BD9C
:10212000641CB442F5D30120F9E700000A49496C68
:1021300081B10949096C084A02EBC10101601146ED
:1021400091F84010491C01F0070111641146496CD7
:10215000491E516470470000442F00200649026860
:102160008A4203D00168083101607047024938395A
:10217000016000BFF9E700007C2F002001780229F0
:1021800002D0017803290BD106490A6C817D1144E4
:10219000044A116411464A6C817D511A014A516406
:1021A00070470000442F00202DE9F04104460D4601
:1021B0004FF6FF76304684420AD14FF480712846AC
:1021C00005F0D2F90646B6F5807F0FD126460DE020
:1021D000FF2C0BDC2146284605F0B6F907460FB167
:1021E000204601E04FF6FF70064600BF3046BDE8CE
:1021F000F081000070B505460DB9094C01E0084CAE
:10220000083409E0204602F053F8064606B904E017
:1022100028467168884700BFF4E700BF70BD000022
:10222000DC2D00202DE9F04782461F480068002879
:1022300036D01D480068056806F07EF807461B4842
:1022400004682146384607F0C7F9C61C18480078CC
:1022500008B906F083F8AE4201D2284600E03046C5
:10226000044424F07F44204606F060F806F064F849
:1022700080463946404607F0AFF900F10309394678
:10228000204607F0A9F9814509D906F055F881469D
:1022900006F04CF82F2002F063FF07F0F5FA01E09A
:1022A00006F07AF8BDE8F0870C220020102200200A
:1022B0002422002001460888062808DB0888B0F59B
:1022C000486F06DD08884FF6FF72904201D0072064
:1022D00070474888062808DB4888B0F5486F06DD57
:1022E00048884FF6FF72904201D00720F0E7088837
:1022F0004FF6FF72904208D04888904205D0088877
:102300004A88904201DD0720E2E70020E0E72DE95E
:10231000F04106460D46144698462088801D4045EB
:1023200002D90C20BDE8F0813046FFF7C3FF074615
:1023300000BF0FB13846F5E700BF0520218868547B
:102340002088401C20801220218868542088401C4E
:10235000208022885119308807F053FC21880844D6
:10236000208022885119708807F04BFC218808448E
:1023700020800020D6E710B5044600BF2046FDF7B8
:1023800039FE00BF10BD000030B587B01C21684683
:10239000FDF76BF8002000904FF4203001904FF4CF
:1023A0007020029003208DF80C000020ADF80E0084
:1023B0008DF8100009480590094806906846FEF718
:1023C000DBFA044600BF254625B100BF2846FDF7CD
:1023D00011FE00BF00BF07B030BD0000BD5A0200B3
:1023E0007723020038B51B4801F03CFF20BB1A4898
:1023F000007848B119484069E8B1002000901748BA
:1024000041696846884716E01548007810B91348B6
:10241000456801E011488568002229461148006896
:10242000FDF75AFE044634B10C48806918B10B48D8
:1024300081692046884709E00848406930B1012099
:102440000090064841696846884700BF002002495D
:10245000087038BD842100208C21002038290020FC
:10246000802100205CAB02003EB504462088FEF7C8
:10247000E7FAD0B1208810490978FEF783FB28B924
:10248000208800220D490978FEF78EFB2088ADF8E0
:10249000020005208DF800002088FEF7DDFA8DF897
:1024A0000400684600F0D0FA05E02088012241F2DD
:1024B000060100F0FBF83EBDD7210020D621002008
:1024C00010B5012200210846FFF7E4F8044600BFDA
:1024D0001CB1072C01D0204610BD00BF07220221ED
:1024E0000120FFF7D7F8044600BF1CB1072C01D02C
:1024F0002046F1E700BF042202210020FFF7CAF8BE
:10250000044600BF1CB1072C01D02046E4E700BF01
:102510000020E1E770B506460D460EB1012070BD02
:10252000287920B1012809D0022813D10FE02846CC
:1025300005F07CFD0446022028710DE0284600F0DD
:1025400005FD04460A2C01D141F61D5404E041F674
:102550001D5401E00F2400BF00BF2046DFE700004C
:102560002DE9F0478146002532E01C48006800EB69
:10257000C5042178012000FA01F6194800683040AE
:1025800020B317480068B04315490860207802F06E
:102590006DFF0746217801208840124909680840EC
:1025A000217807FA01F188420FD16078012800D123
:1025B00000E00020784080F00108606820B108F059
:1025C000FF0120786268904700BF00BF681CC5B259
:1025D000054800788542C8DBBDE8F087F02100207F
:1025E00000220020FC210020F421002070B50446C8
:1025F00020793D2802D141F23D0001E04FF488509E
:10260000054620880022294601F0C4FF70BD2DE94F
:10261000F04105460E461746002431192A1BD0B258
:102620003A46FDF7A3FE2044C4B22046BDE8F0813F
:1026300070B506460D46002429193046FDF7A7FE61
:102640002044C4B2204670BD014614480078144AA4
:10265000127890421DD011480078401C0F4A10702B
:1026600010460078022801D1002010700D480B4A56
:10267000127850F8220008600B4A0868126810446B
:10268000094A10601046006820F07F401060012069
:1026900070470020086000BFFAE700001C220020FD
:1026A0001D2200201422002010220020FEB5044626
:1026B0000D461646094A07CA8DE80700ADF80240E4
:1026C000ADF804508DF806600022054801782046D8
:1026D000FEF76AFA684600F0B7F9FEBDE0AB02000B
:1026E000D621002010B50446A08928DF10BD0000C7
:1026F00013480078062820D11148001D007800F00A
:102700000F00D0B90E480830007800F0F0003028F3
:1027100001D1012070470A480830007800F0F0002D
:10272000402801D10120F5E705480830007800F085
:10273000F000502801D10120ECE70020EAE700007A
:10274000E00F00F00A48007806280ED10848001D66
:10275000007800F00F0040B905480830007800F01C
:10276000F000302801D1012070470020FCE7000074
:10277000E00F00F013480078062820D11148001D12
:10278000007800F00F00D0B90E480830007800F053
:10279000F000302801D1012070470A480830007845
:1027A00000F0F000402801D10120F5E7054808308D
:1027B000007800F0F000502801D10120ECE7002063
:1027C000EAE70000E00F00F00A48007806280ED182
:1027D0000848001D007800F00F0040B90548083097
:1027E000007800F0F000302801D10120704700206F
:1027F000FCE70000E00F00F013480078062820D125
:102800001148001D007800F00F00D0B90E480830C4
:10281000007800F0F000302801D1012070470A480C
:102820000830007800F0F000402801D10120F5E7E1
:1028300005480830007800F0F000502801D1012050
:10284000ECE70020EAE70000E00F00F00A4800781B
:1028500006280ED10848001D007800F00F0040B98E
:1028600005480830007800F0F000302801D1012040
:1028700070470020FCE70000E00F00F00A480078F5
:1028800006280ED10848001D007800F00F0040B95E
:1028900005480830007800F0F000302801D1012010
:1028A00070470020FCE70000E00F00F00A480078C5
:1028B00006280ED10848001D007800F00F0040B92E
:1028C00005480830007800F0F000502801D10120C0
:1028D00070470020FCE70000E00F00F00278072AB4
:1028E00034D2DFE802F03304071020293000002240
:1028F0000A702CE001220A7003898B818388CB81C6
:10290000C2688A6023E002220A7003898B8183886F
:10291000CB81C2688A60027C062A01D1012300E0D3
:1029200000230B7413E003220A70C3888B81038990
:10293000CB81C2688A600AE004220A70C3888B8156
:102940000023CB8103E005220A7000E000BF00BF36
:102950007047000070B50546002409E0064850F8AD
:10296000240020B1044850F8241028468847641CED
:10297000082CF3D370BD0000AC2E00203EB50546F8
:102980000C46DCB1112C19D000200090019002906F
:10299000ADF8025001940D2C03D10B208DF80000EE
:1029A00008E0042C03D10A208DF8000002E0092081
:1029B0008DF80000684600F057F800BF3EBD0000EB
:1029C00070B50546002405E0044850F82410284658
:1029D0008847641C002CF7D070BD000090210020B7
:1029E00070B50546002405E0044850F82410284638
:1029F0008847641C002CF7D070BD00009C2100208B
:102A000070B50546002405E0044850F82410284617
:102A10008847641C022CF7D370BD000078AB02001D
:102A200070B50546002405E0054850F824102846F6
:102A30008847641C034800788442F5DB70BD0000C1
:102A4000882D0020D221002070B50546002405E025
:102A5000044850F8241028468847641C022CF7D3F9
:102A600070BD0000A8AB020070B50546002405E06B
:102A7000044850F8241028468847641C002CF7D0DE
:102A800070BD0000ECAB0200F0B5034600241FE06F
:102A9000124E306806689E4203D90668F61A066030
:102AA0001AE006689B1B06683444002606600B4E3D
:102AB00035680A4FC6693E60C66846B10E1926F0F1
:102AC0007F464660C66886601668C661156000BFAE
:102AD000024800680028DBD100BFF0BD0C220020B6
:102AE000704700001FB50446606808B9012000E087
:102AF00000200390207806287BD2DFE800F08203D4
:102B000004304F7B00BFA08900F045FA18B9E08976
:102B100005F09BFB10B3A08900F038FAADF8020075
:102B2000E08905F08FFB8DF804002078012807D19B
:102B3000606808B9002000E003208DF8000006E07E
:102B4000606808B9012000E004208DF8000060688A
:102B50000390A0680290684603F064FF52E0A089E9
:102B600000F019FA18B9E08905F06FFBA8B1A08947
:102B700000F00CFAADF80200E08905F063FB8DF877
:102B80000400606808B9022000E005208DF800000C
:102B9000A0680290684603F045FF33E0A08900F08A
:102BA000FAF928B3E08918BBA08900F0EFF9ADF875
:102BB0000200E08905F046FB8DF80400FF208DF847
:102BC0000400606838B906208DF80000BDF80200E6
:102BD00004F03EF902E007208DF8000000200E49C5
:102BE00008700E49087004F07DF8684603F01AFF7B
:102BF00008E006E008208DF80000684603F012FFA8
:102C000000E000BF00BF0448007820B10020024966
:102C1000087004F067F81FBDAD210020AE21002030
:102C200010B588B00446022000F0F6F910B9022071
:102C300008B010BD4FF6FF70844201D10420F7E7C1
:102C400005208DF8040001208DF80800ADF80A4039
:102C50000022114601A803F0F5F918B105F044F976
:102C60000020E5E70820E3E700B587B0022000F088
:102C7000D3F910B9022007B000BD06208DF800007E
:102C800000221146684603F0DDF948B10548007896
:102C900010B101200349087305F026F90020EAE786
:102CA0000820E8E7AC2F002010B58CB0142107A84D
:102CB000FCF7DBFB022000F0AFF928B107A8FFF713
:102CC00049FE00200CB010BD012000F0A5F908B1AC
:102CD0000020F7E7012000F0ABF900F079FA03F0EB
:102CE000BDFA04460CB90B20ECE7062C0AD10220F1
:102CF00000F09EF9012000F075F907A8FFF72AFE01
:102D00000020DFE701208DF800000C2C1AD2DFE84C
:102D100004F01906190719141915190B100C00BF26
:102D200000208DF804000EE000BF03208DF80400A1
:102D300009E002208DF8040005E000BF01208DF8B5
:102D4000040000E000BF00BF00221146684603F007
:102D500079F905F0C9F80020B4E7000038B5044659
:102D60000CB9052038BD6946204605F083F9E0B16D
:102D70000F48BDF8001000EB01108089002812DD1B
:102D8000A07A80B10A48BDF8001000EB01108089DC
:102D9000401E0749BDF8002001EB02118881002088
:102DA000A072002502E0062500E00A252846D9E7A2
:102DB0008C2F00207FB514461D462B46224601A9C4
:102DC000684605F0EFF804B070BD37B50C461546FF
:102DD0002B4622466946002005F0E4F83EBD37B593
:102DE0000C4615462B4622460021684605F0DAF8C7
:102DF0003EBD024602B109B905207047106808605F
:102E00000020FAE738B504460D4604B10DB9052097
:102E100038BD6946204605F02DF9A8B161680B4818
:102E2000BDF8002000EB02108089401C074ABDF865
:102E3000003002EB03129081296060680C306860FA
:102E40000120A0720020E3E70A20E1E78C2F002098
:102E500070B504460D460CB9052070BD0323002251
:102E60002946204607F0B8F8F7E770B504460D4646
:102E7000022300222946204607F0AEF870BD70B547
:102E800005460E4614460CB9052070BD02232246A5
:102E90003146284607F0A0F8F7E700000146094A46
:102EA0001278082A01D10C200AE0074A054B1B784A
:102EB00042F82310034A1278521C024B1A70002069
:102EC0007047000029220020AC2E0020F8B50446EF
:102ED0000D46022000F0A0F808B90220F8BD0CB998
:102EE0000520FBE76946284607F062F906461EB949
:102EF000BDF80000208065803046EFE770B50446DD
:102F0000022000F089F808B9022070BD0CB9052034
:102F1000FBE72088022801DD0420F6E720880A4923
:102F200001EB001671896088C01C081A08D421883A
:102F3000608807F02FF9002020806080002500E0E5
:102F400004252846E1E700008C2F00203EB504460A
:102F50000C4B6A460021A01D05F024F805465DB91A
:102F6000019805F0F5F80546012006498988064ACA
:102F700002EB0111887303E0024800210160416007
:102F800028463EBD382200208C2F00200146A1F5A6
:102F9000404080B270470146B1F5404F05DB4FF627
:102FA000FE70814201DC012070470020FCE710B573
:102FB0000446A07EFF2802D0A07E02F06FFC002015
:102FC00060762071201D2168884710BD70B50646C7
:102FD0000D46002429193046FDF7BEF92044C4B23D
:102FE000204670BD024909788143014A117070473B
:102FF0002822002010B504462078182802D1FDF7B9
:10300000A1FD207010BD10B504462078182802D10B
:10301000FDF798FD207010BD014604480078084077
:1030200008B1012070470020FCE7000028220020A2
:10303000024909780143014A117070472822002093
:1030400030B504461088C01C984201D90C2030BD10
:103050000220158848551088401C108001201588D2
:1030600048551088401C108015884C551088401C0D
:1030700010800020EBE700002DE9F04106460C46E9
:1030800015460027B846042C03D0112C01D0002C83
:1030900035D1042C03D14FF00008012709E0112C91
:1030A00003D14FF00108002703E014B94FF00008E6
:1030B0000027C5B13A46134801783046FDF774FD44
:1030C0004246114801783046FDF76EFD00220F4858
:1030D00001783046FDF768FD00220D480178304642
:1030E000FDF762FD0BE03A46084801783046FDF7EF
:1030F0005BFD4246064801783046FDF755FDBDE8C8
:10310000F0810000ED210020EC210020E9210020C9
:10311000E821002008B5684600F0BAF8009808B128
:10312000012008BD0020FCE7F8B505460C46164610
:103130001F461C48007800F0010008B90120F8BDC6
:103140002846FEF7D1FF08B90220F8E70CB90320A2
:10315000F5E7C4F30B0008B10620F0E72868A042A9
:1031600004D804EB06306968884201D90520E6E7F7
:103170000EB90420E3E7684604F0FAFD08B9072019
:10318000DDE700984760009805600220009908720A
:10319000C4F30F30009988810098068204F0B0FED5
:1031A0000020CCE74022002070B505460C462046A2
:1031B00004F012FE70BD4FF010204169481C08B1A8
:1031C000084670474FF0805040690003F9E700005F
:1031D0002DE9F0412B482C49401A04092948401A8E
:1031E0000509FFF7E8FF06462848007800F00100CF
:1031F00010B10020BDE8F081002008E0224A02EB77
:1032000000110A6812B14A6802B16D1E401CA0424A
:10321000F4D300202BE01C4901EB00124FF0000C0E
:10322000C7B2002117E0DFF8608008EB0113D3F884
:103230000080B8F1000F05D0D3F80480B8F1000F7A
:1032400000D007E093F80D80E04502DD93F80DC053
:10325000CFB200BF491CA142E5D30B4901EB0712D5
:103260005660117BA6EB013111601668401CA84224
:10327000D1D30648007840F00100044908700020CE
:10328000B8E70000782600206826002040220020B1
:10329000014609B9032070470248406E08600020CB
:1032A000F9E70000C82F00202DE9F84305460C4639
:1032B00016461F46DDF820801F48007800F0010008
:1032C00010B90120BDE8F8832846FEF70DFF08B9C4
:1032D0000220F7E706B10CB90320F3E706F003007C
:1032E00010B904F0030008B10620EBE72868A042FB
:1032F00004D804EB87016868884201D20520E1E721
:103300000FB90420DEE7684604F032FD08B9072053
:10331000D8E70098C0F80480009805600120009963
:1033200008720098C660009804610098878204F0D3
:10333000E7FD0020C6E700004022002070B50446EB
:103340001748006E00EB4000154901EBC005154819
:10335000007800F0020068B1022C02D0032C08D1E2
:1033600003E0284602F0D0FC03E0284602F0B6FC59
:1033700000BF12E00B48007800F0040068B1094873
:10338000007820F00400074908700548406E20B11D
:103390000846007840F00200087004F06FFD70BD30
:1033A000C82F0020402200203EB500BF9DF800003D
:1033B00020F00F00401C00909DF8000020F0F0006D
:1033C0001030009000BF0A2214A168467CDF04463A
:1033D00000BF254625B100BF2846FCF70BFE00BF05
:1033E00000BF0020019002905020ADF80400A02002
:1033F000ADF806000020ADF808004FF4C870ADF835
:103400000A0001A87ADF044600BF254625B100BFA7
:103410002846FCF7EFFD00BF00BF3EBD6E6F6E6536
:103420004E6F72646963000070B505460DB10120EE
:1034300070BD1848007B18B100201649087301E0E0
:1034400000F0D4F81348007808281DD2DFE800F017
:103450001C04080C101C141800F03CF8044615E07D
:1034600000F0B2F8044611E000F08EF804460DE0DA
:1034700000F044F8044609E000F01CF9044605E0B9
:1034800000F028F9044601E00F2400BF00BF2046E9
:10349000CEE70000AC2F00200C480089401C0B49EF
:1034A000088100204880087300BF0CE0084901EB48
:1034B0000011097809B9012200E0002203490A310C
:1034C0000A54411C88B20228F0DB7047AC2F002060
:1034D0008C2F002010B5084800F032F840B90020C9
:1034E0000549891E08704880486041F61D5010BD8E
:1034F00000F06AF8FBE70000AE2F002070B50D4821
:1035000045880D4800EB0510808968B90A4800EB32
:1035100005100023012241680848FFF705FE044614
:1035200004200449087002E000F08CF804462046AC
:1035300070BD0000AC2F00208C2F002068260020DA
:1035400010B501460022002015E00D4B1B5C83B135
:1035500000240B4B1C540B4B03EB00139B8943B90A
:10356000084B03EB00139B7B012B02D10880012247
:1035700003E0431C98B20228E7DB00BF104610BDF1
:10358000B62F00208C2F0020F8B50C4844680C485A
:1035900000680B49898800EB81056088C01C86B2F1
:1035A000032006490870002000900846334629464B
:1035B00042680448FFF778FEF8BD0000AC2F0020F9
:1035C000302200206826002010B507494888091DD0
:1035D00004F08EFD18B1FFF7D7FF044602E0FFF7B5
:1035E0008DFF0446204610BDAC2F002010B51448B6
:1035F0000078082820D2DFE800F0041F1F0A101608
:10360000171BFFF749FF01200D49087015E000F076
:103610006DF802200A4908700FE000F029F8062032
:103620000749087009E000BF07200549087004E059
:1036300001200349087000E000BF00BF10BD00007A
:10364000AC2F002010B5052006490870022006495D
:10365000888008460023012201680448FFF764FDC2
:1036600010BD0000AC2F0020302200206826002072
:103670000D4908680D4949880D4A02EB0111496856
:10368000094A116009494988094A02EB0111486059
:1036900005498988054A5288054B03EB02121181BE
:1036A0000221014A9180704730220020AC2F002077
:1036B0008C2F002010B50620044908704988044A60
:1036C00002EB0111486802F0A7FD10BDAC2F0020ED
:1036D0008C2F002010B50720034908700020486097
:1036E00002F0AAFD10BD0000AC2F0020054A506872
:1036F0004288D21C91B2044A92880A44024B9A80B2
:1037000070470000AC2F0020302200203EB5044658
:103710002088502821D0522802D0542825D103E0F7
:10372000A08801F067F820E006208DF80000A0884E
:1037300000F014FCADF80200A088ADF80400BDF85C
:10374000020000F04FF9A08800220C490978FDF72B
:103750002BFA6846FFF734F907E0A01DFEF772FB6D
:1037600010B1A08801F096F800BF00BFFCF74AFD39
:1037700006F04EFA05F01CF93EBD0000972100202E
:103780003EB504466088ADF80200207820B10128DB
:103790000FD002282BD116E000208DF800006846DB
:1037A000FFF70EF9608800F003FB054601F022F8F0
:1037B0001DE001208DF80000A088ADF804006846E7
:1037C000FFF7FEF813E0207980B1608800F0F0FA8E
:1037D00005464FF6FF70854207D001220548017863
:1037E0002846FDF7E1F905F0E3F800BF00BF00BF90
:1037F0003EBD00009721002010B504462078012826
:103800000DD1608800F0F6FF608800F0CFF928B194
:103810006088012203490978FDF7C6F900E000BF7E
:1038200000BF10BD9721002010B500F0B3FCFDF7DC
:1038300089F912490870FDF785F911490870FDF7FB
:1038400081F910490870FDF77DF90F4908700B48A0
:10385000007818280BD00A480078182807D00948A3
:103860000078182803D008460078182801D10320D2
:1038700010BD0120054908700020F9E795210020BE
:1038800096210020972100209821002094210020DB
:1038900010B586B000F0BEF801A8FDF7C5F8002409
:1038A00012E002A931F8140000F058FB4FF6FF7146
:1038B000884207D102A931F814000122064909788B
:1038C000FDF772F9601C84B20198A042E9D805F0B6
:1038D0006FF806B010BD00009721002010B5044617
:1038E0002078072803D1608800F0D4FF00E000BFF3
:1038F00000BF10BD10B504460B4801782046FDF707
:1039000041F970B100210AE001EB4100074A02EBE6
:1039100080004088A04201D1C8B210BD491C0829CE
:10392000F2D3FF20F9E70000A7210020A8290020FA
:1039300010B500240DE004EB4401084A02EB8101BC
:10394000488807490978FDF71DF908B9E0B210BDAC
:10395000641C082CEFD3FF20F9E70000A829002001
:10396000A72100202DE9F04105460F46012000FA6D
:1039700005F418480068FCF7D9FB06460EB1BDE80F
:10398000F081154800682040E0B9284601F06EFD3E
:1039900028B11248006820431049086004E00F482D
:1039A0000068A0430D4908600B48006820430A499D
:1039B000086000220A48016806480068FCF78CFB92
:1039C000064604E004480068A0430349086000BFBD
:1039D000D5E7000000AC020000220020FC210020FE
:1039E000F82100201CB50446044903C9CDE90001B3
:1039F00000226946204602F094FE1CBD70AB020016
:103A000010B500F0CDFB012001490870002010BD69
:103A1000A021002010B54FF6FF7002F055FD0249BD
:103A2000088004F0FBFF10BDA22100202DE9FC4717
:103A30008146484600F092FA0546002600274FF0DE
:103A400003084FF0010A4FF6FF7085420CD06A461A
:103A50000821284602F02EFE04462CB90198861D46
:103A60008788D0F8008000BF00BF43463A46314601
:103A70004846A9DF0446042C01D1112415E0082C86
:103A800001D1002411E00B2C0FD14FF0000A08F0F7
:103A9000020010B14FF0010807E006B927B1002677
:103AA00000274FF0030800E003240B2CDDD0BAF10F
:103AB000000F00D10B242046BDE8FC872DE9FC4710
:103AC0008046404600F04AFA07464FF6FF708742AC
:103AD00003D143F20200BDE8FC874FF001094FF02B
:103AE000000A00BF4FF0000A4A46511C1FFA81F934
:103AF0006B460821384602F01FFE044604BB019DB8
:103B0000032028602A1DA91D40462B68AADF044611
:103B10002CB90821384602F0C5FE04460FE00C2CF3
:103B200002D14FF0010A02E0052C00D10024082147
:103B3000384602F09BFE064606B1032400BF02E0B1
:103B4000072C00D10C24BAF1000FCBD100BF2046C6
:103B5000C1E700007FB50446207801281BD12079F9
:103B6000012818D1608802AA012102F0A3FD0546B0
:103B700085B902208DF800006088ADF8020003A826
:103B800008B1012000E000208DF804006846FEF72F
:103B900027FF00BF00BF044800884FF6FF7188422E
:103BA00001D004F03BFF7FBDA22100207CB504467C
:103BB000204600F0D3F906466A460121304602F05D
:103BC00079FD05460DB100207CBD01980078FBE72A
:103BD00070B505464FF6FF7600BF4FF6FF720A48F4
:103BE00001882846A7DF044643F20300844204D13B
:103BF00005480088401C0449088043F203008442C1
:103C0000EBD0204670BD0000A421002070B5064610
:103C10000D46002429193046FCF79EFB2044C4B20F
:103C2000204670BD014688884FF6FF72904203D04F
:103C3000088808B1012070470020FCE72DE9F04119
:103C400004460E4600257719227938462168FBF78D
:103C5000F3FB20792844C5B22846BDE8F0813EB583
:103C600004460D4620780221B1EB500F01D0002010
:103C70003EBDB4F80100ADF80800E0788DF80A0008
:103C8000A188ADF80010A0798DF8020001AA69465C
:103C90002846FCF7E5F8032201A902A8FBF7F7FB89
:103CA00008B90120E4E70020E2E7000070B506460D
:103CB0000C463046FFF71EFE0546FF2D0CD005EBE7
:103CC0004500064901EB8000416821600189A1801F
:103CD000807AA071002070BD0520FCE7A829002093
:103CE00070B590B004462088102801D010B070BD87
:103CF0003422211D03A8FBF79FFB4FF6FF759DF8AB
:103D000010000321B1EB500F35D002F0F1FE9DF809
:103D10001000400820B1012803D0022828D114E067
:103D200000BF09E0019800F1110104A8FBF702FFB0
:103D300010B1BDF8085006E06A4602A9072002F05B
:103D4000A9FE0028EED100BF13E008E00198411C55
:103D500004A8FFF784FF10B1BDF8085006E06A46DA
:103D600002A9072002F096FE0028EFD100BF00E074
:103D700000BF00BF00BFBDF80C0004A901F020F98E
:103D800006464FF6FF7085420FD0BDF80C0029465D
:103D900000F088F8BDF80C00ADF8060001208DF8A1
:103DA000040001A8FEF72CFE00BF00BF9EE7000044
:103DB000024600210DE001EB4100084B33F82000E2
:103DC000904205D101EB410003EB80004088704731
:103DD000491C0829EFD34FF6FF70F8E7A829002007
:103DE00010B500F0E9F9FCF7ADFE06490870084689
:103DF0000078182801D1032010BD01200249087065
:103E00000020F9E7A7210020A62100202DE9F0419C
:103E100004460D46601C00F037FA10B90020BDE8DA
:103E2000F0811022691C601CFBF731FB08B90120EE
:103E300000E00020074605F1110104F11100FBF735
:103E400079FE064607B90EB10120E8E70020E6E753
:103E50000246108808B101207047002105E0901C3F
:103E6000405C08B10120F7E7491C0829F7D300207E
:103E7000F2E770B505460C462846FFF7E9FF08B99A
:103E8000002070BD28882188884201D00020F8E7F2
:103E90000822A11CA81CFBF7FAFA08B90120F0E7D8
:103EA0000020EEE770B504460D462946204603F093
:103EB00031F870BD30B587B00446207810B920794C
:103EC000072801D007B030BD608804AA072102F09E
:103ED000F1FB054605B1F5E702F00AFE1EE0608839
:103EE000BDF81810884200D118E003990598FFF733
:103EF0008DFF90B16088FFF75BFFADF802000020F6
:103F00008DF800006088ADF80400BDF81810ADF819
:103F100006106846FEF774FD07E000BF02AA06A976
:103F2000072002F0B7FD0028D9D100BF00BFC9E7C4
:103F300070B506463046FFF73BFF0446304602F0B8
:103F4000C4FB05464FF6FF70844204D01DB90146FC
:103F5000204602F0DFFF284670BD000070B5054620
:103F60002846FFF7C7FC0446FF2C05D004EB4400AD
:103F7000034931F8200070BD4FF6FF70FBE70000E9
:103F8000A82900203EB5044602F0B2FD10E00198D9
:103F900000F146012046FFF76CFF30B9019800F1AF
:103FA0002A012046FFF765FF10B1BDF808003EBDAD
:103FB0006A4602A9072002F06DFD0028E7D14FF6FE
:103FC000FF70F4E72DE9F04106460C460F272EB1AD
:103FD0000120FFF707F80120BDE8F081207930B11A
:103FE00001280AD0022833D0032864D13EE002F031
:103FF00023F90746012020715EE04FF000080025FC
:1040000016E0324800EB0510007802280ED12F4947
:1040100001EB0511486802F0FFF8074600202B4924
:1040200001EB051108704FF0010803E0681C85B230
:10403000022DE6DB00BFB8F1000F08D10220FEF729
:10404000F7FF0120FEF7CEFF41F61D50C4E733E035
:104050001F480023012201681E48FFF765F8074644
:1040600002201B4988800020207125E0184908683B
:1040700002F0D2F80746184845881548D0F8008065
:10408000124800EB05104068114908600F4800EB2A
:104090000510C0F80480084680880C4901EB051122
:1040A000088102200A4988800020084901EB051197
:1040B0000870207100E000BF00BF27B10120FEF7AB
:1040C00091FF0E2088E7002086E700008C2F00205B
:1040D0003022002068260020AC2F0020F8B52748A9
:1040E000007800B9F8BD00252548006808B901200E
:1040F00000E00020064600BFDDB92248007800B18C
:10410000F0E7684648DF0446052C01D101250FE0A1
:1041100024B100BF2046FBF76DFF09E0009801F0D5
:10412000A5F81948006818B1174900980968884728
:1041300000BFDEB91348007800B1D3E71348008808
:10414000009069461248006861DF0446052C01D1E1
:1041500001260AE024B100BF2046FBF74BFF04E034
:104160000B48006806490968884700BF0DB106B1D1
:1041700000E0C1E700BF00BFB4E700004822002014
:1041800054220020492200205822002050220020E2
:104190004C22002000200149087070479421002023
:1041A0000020034908704FF6FF70024908807047ED
:1041B000A0210020A221002018200849087000201A
:1041C00008E04FF6FF7100EB4002054B03EB820263
:1041D0005180401C0828F4D370470000A72100201C
:1041E000A829002010B5002407E004EB8401044A4C
:1041F00002EB810005F0C5FE641C082CF5D310BD50
:10420000282A002010B5044640212046FBF72DF94E
:1042100010BD00004FF6FF700549088000200549D9
:1042200008601820044908700449087070470000AD
:10423000D0210020C8210020D3210020D42100203B
:1042400070B505460C464FF48471284601F054FBC6
:104250002146284605F034FB10B92046FEF7A7FE9C
:1042600070BD000001464888064A1288904206DB6D
:104270004888044A5288904201DC0120704700209F
:10428000FCE70000782100200246002104E0505C99
:1042900008B101207047491C1029F8D30020F9E724
:1042A000014601F0030008B9012070470020FCE737
:1042B0000146086808B102680A60704710B50446F4
:1042C0000448007800F0010018B103480078FDF7B9
:1042D00087FA10BD3C210020342100202DE9F04157
:1042E00007460D4690461E462DB92948007810B95C
:1042F0000520BDE8F08135B142460021384604F082
:10430000DDFE044605E042462249384604F0D6FE6A
:104310000446002221463846FEF7AEFE1EB1214675
:104320003846FEF72BFB0D2C29D005DC34B3042CCA
:1043300017D0082C26D124E0112C04D0A4F540502D
:104340000238F8B91CE02A46134801783846FCF7D1
:104350002BFC4246114801783846FCF725FC002426
:1043600012E02A460C4801783846FCF71DFC42460C
:104370000A4801783846FCF717FC05E000BF00BF8B
:1043800000BF01E0032400BF00BF2046B1E70000EA
:10439000E2210020DD210020EB210020EA21002085
:1043A0002DE9FC4107460E46904626B900213846C5
:1043B0007EDFBDE8FC81307800F0010008B101200B
:1043C00000E0022001903846FFF7C8FD05464FF691
:1043D000FF70854209D001A82B4642463146009025
:1043E000384600F024F8044619E0307800F0010067
:1043F00028B13146384600F08EF804460FE03146C9
:1044000038467EDF0446002000900CB9012000E011
:104410000020024601232946384604F025FA24B933
:104420009DF80410384604F067FA2046C1E72DE9EC
:10443000FF4F85B00F4690461E46DDF84890002598
:10444000AA4603AA0721304602F034F904466CB9A3
:10445000049800F11805049890F8440000F0010A4F
:10446000BAF1000F02D0049800F13405B8F1000F42
:1044700013D194B98DB1BAF1000F04D105F1120036
:10448000FFF7E6FC48B12A4605F11201059885DFE1
:104490000446002089F8000027E00CB1052C24D147
:1044A0000024387800F0010060B101AB012207213F
:1044B000304602F041F9044624B90721304602F0A3
:1044C00075FA04461CB9394605987EDF044664B186
:1044D0000721304602F0CAF98346BBF1000F03D032
:1044E000BBF1050F00D0032400BF0020009099F815
:1044F000000008B1012000E0002003460CB90120B3
:1045000000E0002002463146059804F0ADF920464F
:1045100009B0BDE8F08F2DE9FE430746884602F05A
:10452000B7F805464FF6FF7085421CD001AB01225B
:104530000721284602F000F9044624B9072128463D
:1045400002F034FA04461CB9414638467EDF044680
:1045500054B10721284602F089F9064616B1052E06
:1045600000D0032400E003244FF6FF70854201D001
:10457000012000E0002000900CB9012000E00020A4
:10458000024601232946384604F06EF92046BDE86C
:10459000FE8300002DE9F04107460C461546114800
:1045A00001783846FCF7EEFAD0B13846FFF7D6FC72
:1045B00006464FF6FF70864211D00B480178384608
:1045C000FCF7E0FA30B12B4622463146384601F07E
:1045D000DDFE04E02A4621463846FEF767F800BFB4
:1045E000BDE8F081D6210020D72100202DE9F04739
:1045F00086B005462846FCF7B7FA8046404603F0E9
:10460000A5FF58B301A8FCF70FFA002422E002A985
:1046100031F814002946FCF7B5FA0646CEB102A9D6
:1046200031F814000F490978FCF7ACFA814602A969
:1046300031F814000C490978FCF7A4FA824602A963
:1046400031F8140001234A465146FFF747FE07465A
:1046500000BF641C0198A042D9D800BF06B0BDE8D5
:10466000F0870000EA210020EB21002070B504460D
:104670000D46294620467EDF0646304670BD0000C6
:1046800070B51C4804781C48066827E01948406843
:1046900004EB440100EBC105601CC4B215488078EE
:1046A000A04200D100242878022802D0032812D189
:1046B00003E0686805F016F80EE007E00E490868A8
:1046C000002101740C4AC169116000BF0A480068EA
:1046D0000028F3D100E000BF00BF00BF05484078CC
:1046E000A042D3D104480068B04201D0012070BD7F
:1046F0000020FCE7042200200C2200202DE9F041DC
:104700000546374807685AE015B12C46E56929E0A7
:1047100034494968334A127802EB420201EBC20085
:1047200030490978491C2F4A11701146097892784E
:10473000914202D100212B4A11704468017801296D
:1047400001D1217C01B13AE081686160C168A1605A
:104750000169E1604169A1612349097809B100213A
:10476000616000BF214960680968401A20F07F40FD
:104770001F49884208D21D496068096804F02CFF6F
:10478000A168084420600FE018486168006804F0E0
:1047900023FF0646A068B04203D9A068801B2060B2
:1047A00001E00020206000BF00206060A0600120C8
:1047B00020740020E061204604F060FF00BF002D5F
:1047C000A2D1084800780749497888429CD104481A
:1047D0000068B84202D00120BDE8F0810020FBE76C
:1047E0000C2200200422002025220020102200207C
:1047F000FFFF7F00FEB5044600264FF6FF7084429F
:1048000000D1FEBD2046FFF711F9054645B10B2D3D
:1048100016D0112D12D0A5F540500238F8B91DE080
:1048200002208DF800002046FFF798FBADF802004B
:10483000ADF804406846FEF7C3F81FE001261DE00E
:1048400003208DF800002046FFF788FBADF802003A
:10485000ADF804406846FEF7B3F80FE00EE009201B
:104860008DF800002046FFF779FBADF80200ADF8A7
:10487000044002956846FEF7A3F800BF00BF324629
:10488000034801782046FCF78FF900BFB9E7000024
:1048900096210020FEB5044600262046FFF70EF9BB
:1048A00005460C2D1CD003DC4DB1042D34D125E080
:1048B000112D13D0A5F54050023868BB0DE0012042
:1048C0008DF80000ADF804402046FFF747FBADF837
:1048D00002006846FEF774F82DE02CE001262AE07D
:1048E00007208DF80000ADF804402046FFF736FBA6
:1048F000ADF802006846FEF763F81CE008208DF86A
:104900000000ADF804402046FFF728FBADF8020098
:104910006846FEF755F80EE009208DF800002046A5
:10492000FFF71CFBADF80200ADF8044002956846A5
:10493000FEF746F800BF00BF324603480178204624
:10494000FCF732F9FEBD000095210020F8B50446C1
:104950000D4600262078284080B900200090684647
:10496000FBF7FCFB2078284018B9207828432070FA
:1049700001269DF80000FBF7F7FB00BF3046F8BDAD
:1049800038B5104801781048FAF76FFD0D480178E6
:104990000E48FAF76AFD20200B4908700020487085
:1049A00002200B490870182000F012FE0020074B6F
:1049B000022205490090074800F0C8FE0446204640
:1049C00038BD00005D2600205030002053480020F4
:1049D0005C26002020AC02002DE9F04F80460C46FA
:1049E000164605274FF0070C04EB44004FEAE07B26
:1049F00000EB5B7BCBF3C70A04EB44004FEAE07BA0
:104A000000EB5B7B4FEAEB0BA0EBCB0B0BF0FF0556
:104A100008EB0A004FF0300B0BFB0601802C01DC89
:104A2000802E02DD0020BDE8F08F052D11DC087816
:104A3000A7EB050B0CFA0BFB20EA0B0008700878BB
:104A4000A7EB050B03FA0BFB40EA0B00C0B20870A2
:104A500021E0A7EB0509C9F1000208784CFA02FB36
:104A600020EA0B000870087843FA02FB40EA0B00CA
:104A70000870491C0878C2F1080B0CFA0BFB20EAFD
:104A80000B0008700878C2F1080B03FA0BFB40EA30
:104A90000B00C0B2087000BFC5E7000008B500F009
:104AA000B3F800F0DDF80648006800906946182069
:104AB00000F028FD182000F01FFD002008BD0000B8
:104AC0003CAC020038B50446104801781048FAF7AB
:104AD000CCFC0E4801780F48FAF7C7FC0E4804607A
:104AE00080200B49087001200C4908700C4908709F
:104AF000182000F06DFD0020064B012204490090B3
:104B0000084800F023FE0546284638BD5D260020F3
:104B10005030002053480020602600205E260020F0
:104B20005C26002020AC020038B5044630480078EE
:104B3000002859D0012802D0022856D14DE000208B
:104B40002C49087000BF11E02A490A7880210141F0
:104B5000294B1B78194011B10121814000E000214F
:104B60000A43D1B2234A1170411CC8B20828EBDBBA
:104B700001200AE02149096809781E4A11541F4999
:104B80000968491C1D4A1160401C3028F2DD0020D4
:104B9000184981F830001848007880280FD100208B
:104BA00081F8320014490870022011490870002071
:104BB000134B32220F490090124800F0C7FD0E48F7
:104BC0000078401C0C49087000200D4B3222094926
:104BD00000900C4800F0BAFD07E0182000F08CFCB3
:104BE00000200349087000E000BF00BF38BD00008E
:104BF0005C260020503000205E2600206026002029
:104C00005348002020AC02001FB5124B0FCB8DE89B
:104C10000F004FF00050029000208DF80C008DF82E
:104C20000D001A208DF8020017208DF801001920C0
:104C30008DF8000000BF084A6946084800F0E4FC0F
:104C4000044624B100BF2046FBF7D4F900BF00BFE3
:104C50001FBD000028AC0200294B020020AC02005E
:104C600038B500F011FC1448006800906946162021
:104C700000F048FC044600BF254625B100BF284689
:104C8000FBF7B8F900BF00BF0C4A01210C48FBF745
:104C9000BFF9044600BF254625B100BF2846FBF7F3
:104CA000A9F900BF00BF00224FF4837104480068D7
:104CB000FBF712FA002038BD38AC02009B9E0200C0
:104CC0001CAC0200ADF5C25D002400BF254625B135
:104CD00000BF2846FBF78EF900BF00BF04F0DAFDE5
:104CE00041F63C006844FDF781F8FCF7B3FA0DF596
:104CF000805090F83C0802F047F9FEF755FBFBF7AF
:104D000077F803F05BFFFDF73FFB03F00BFB074673
:104D10000120234908703846FBF782FDFBF771FA42
:104D20000320FBF7C9FC044600BF254625B100BFA0
:104D30002846FBF75FF900BF00BF4FF4C0510FA832
:104D4000FAF793FBFFF7AAFEFFF71AFE00250BE028
:104D5000002606E0EAB2F1B202230FA8FFF73CFEFC
:104D6000761C642EF6DB6D1C642DF1DB01200A211C
:104D70000CA30022CDE9001011460FA802F078FF25
:104D80000FA8FFF79FFE00BF254625B100BF2846AC
:104D9000FBF730F900BF00BF00BF02F05CFFFCE78B
:104DA000BC26002048414C4C4F2057454C54000035
